:020000040800F2
:100000005804002049010008AB0D0008B30B00089C
:10001000A90D0008B5010008150F00080000000038
:10002000000000000000000000000000AF0D00080C
:10003000B701000800000000AD0D0008B10D000878
:100040006301000863010008630100086301000800
:1000500063010008630100086301000863010008F0
:1000600063010008630100086301000863010008E0
:1000700063010008630100086301000863010008D0
:1000800063010008630100086301000863010008C0
:1000900063010008630100086301000863010008B0
:1000A00063010008630100086301000863010008A0
:1000B0006301000863010008630100086301000890
:1000C0006301000863010008630100086301000880
:1000D0006301000863010008630100086301000870
:1000E0006301000863010008630100086301000860
:1000F0006301000863010008630100086301000850
:10010000630100086301000863010008630100083F
:10011000630100086301000863010008630100082F
:10012000630100086301000863010008630100081F
:10013000DFF810D000F02CF800480047550F0008F9
:10014000AFF3008058040020064880470648004767
:10015000FEE7FEE7FEE7FEE7FEE7FEE7FEE7FEE777
:10016000FEE7FEE7F70D000831010008D2B201E01A
:1001700000F8012B491EFBD270470022F6E710B5AC
:1001800013460A4604461946FFF7F0FF204610BD05
:10019000064C074D06E0E06840F0010394E80700D4
:1001A00098471034AC42F6D3FFF7C6FFA80F0008FB
:1001B000C80F0008FEE770477047000070B504469E
:1001C00000F014F90546601C02D00448007804448D
:1001D00000F00CF9401BA042FAD370BD04000020CF
:1001E0002DE9F84FDFF8C891002409F1040A0AF15B
:1001F000040B23460F270BF1040ED1E00125A54087
:1002000006EA0502AA4276D1DFF8A8C14E68A6EB3D
:100210000C0866452BD00DDC032E34D005DC36B33C
:10022000012E19D0022E2FD11BE0112E16D0122E26
:100230002AD119E0B8F5881F19D006DCB8F5803F3F
:1002400015D0B8F5801F1FD111E0B8F5001F0ED0F2
:10025000B8F5041F18D10AE0CB6815E0CB681B1D68
:1002600012E0CB6808330FE0CB680C330CE08B68EE
:100270002BB1012B4FF0080303D0456104E00423A8
:1002800002E0056100E00023FF2A01D8064601E0F4
:1002900000F104064FEA840501D9A5F12005D6F83E
:1002A000008007FA05FC28EA0C0803FA05F548EA7D
:1002B0000508C6F800804D68ED0070D53E4DAE696A
:1002C00046F00106AE61AD6924F0030605F00105B4
:1002D00000953A4D06EB050CDCF80850A607360FE2
:1002E00007FA06F825EA0805DFF8D480404503D16F
:1002F0004FF0000825E052E0DFF8C880404502D109
:100300004FF001081DE0DFF8C080404502D14FF0FA
:10031000020816E0DFF8B480404502D14FF0030830
:100320000FE0DFF8AC80404502D14FF0040808E050
:10033000DFF8A080404502D14FF0050801E04FF002
:10034000060808FA06F848EA0508CCF808804D685F
:10035000D9F80060ED034D4601D5164300E0964301
:100360002E604D68DAF80060AD03554601D516439E
:1003700000E096432E604D68DBF80060ED025D46BC
:1003800001D5164300E096432E604D68DEF800600C
:10039000AD02754601D5164300E096432E60641CFD
:1003A0000A681646E2407FF429AFBDE8F88F0000E6
:1003B0000004014000001110001002400000014044
:1003C00000080140000C01400010014000140140F1
:1003D00000180140001C01408068084000D0012046
:1003E00070470AB1016170470904FBE70148806862
:1003F0007047000004000020024881680278114420
:100400008160704704000020074810B5016841F082
:1004100010010160032000F067F8002000F006F8EA
:1004200000F024F8002010BD0020024070B50D4DF2
:1004300004464FF47A712878B1FBF0F00A49096854
:10044000B1FBF0F000F0DEFA48B9102C07D2002220
:100450002146501E00F028F800206C6070BD01207D
:1004600070BD000004000020100000200C4808B5FA
:10047000816941F001018161816901F0010100910F
:10048000C16941F08051C161C06900F080500090A5
:100490000448416821F0E06141F00071416008BD0D
:1004A0000010024000000140F0B40E4B1B680C46E7
:1004B000C3F30223C3F10705042D00D90425191D38
:1004C000072901D2002300E0DB1E012606FA05F110
:1004D000491E214099409E40761E16403143F0BC93
:1004E00000F019BD0CED00E0064900F007020868B5
:1004F0004FF6FF03184040EA0220034A1043086009
:10050000704700000CED00E00000FA052DE9F0470F
:100510000F46050061D0434E306800F00700B84236
:1005200009D2306820F0070038433060306800F0AE
:100530000700B84251D128683B4C810712D54007CB
:1005400003D5606840F4E06060602878000703D558
:10055000606840F4605060606068A96820F0F00056
:10056000084360602878C00728D06868012810D048
:100570002168022810D0890700292EDA616821F04D
:10058000030101436160FFF731FF804641F2883982
:100590000DE021688903EFE78901EDE7FFF726FF0A
:1005A000A0EB0801494502D90320BDE8F087606847
:1005B000696800F00C00B0EB810FEFD1306800F0FB
:1005C0000700B8420BD9306820F00700384330608C
:1005D000306800F00700B84201D00120E5E7287834
:1005E000400705D56068E96820F4E0600843606072
:1005F0002878000706D56068296920F4605040EA31
:10060000C100606000F038F86168084AC1F3031166
:10061000515CC8400649086006480068FFF706FFBD
:100620000020C2E70020024000100240900F0008A6
:1006300010000020080000200448054900684968AF
:10064000044AC1F30221515CC840704710000020E9
:1006500000100240A00F00080448054900684968DE
:10066000044AC1F3C221515CC84070471000002009
:1006700000100240A00F000812A185B00FC98DE83C
:100680000F0014A0144A006804905168134801F048
:100690000C03042B10D0082B0ED1C1F38343C903E4
:1006A0001DF803000AD5516804AAC1F34041515C0A
:1006B0000A4A5043B0FBF1F005B07047084948437F
:1006C000FAE7000002030405060708090A0B0C0DEF
:1006D0000E0F1010010200000010024000127A00FC
:1006E00000093D002DE9F84F040070D02078C04D7E
:1006F000C00749D06868C0F38100012807D0686846
:10070000C0F38100022809D16868C00306D52868B3
:10071000800339D560680028E7D035E06068B0F51F
:10072000803F0BD010B1B0F5A02F11D0286820F475
:1007300080302860286820F4802002E0286840F497
:1007400080302860606890B1FFF750FE06460AE0EE
:10075000286840F480202860F0E700BFFFF746FEDD
:10076000801B642873D828688003F7D50CE0FFF756
:100770003DFE064605E000BFFFF738FE801B6428FB
:10078000F0D828688003F7D420789A4E80074FF07D
:1007900001094FF0000839D5686810F00C0F07D038
:1007A0006868C0F38100022809D16868C00306D4D4
:1007B0002868800714D52069012808D110E0206935
:1007C000B0B1C6F80090FFF711FE074605E00AE158
:1007D000FFF70CFEC01B0228C4D828688007F7D595
:1007E0002868616920F0F80040EAC10028600DE047
:1007F000C6F80080FFF7FAFD074604E0FFF7F6FDB4
:10080000C01B022823D828688007F7D42078000767
:100810002CD57948A169D9B1C0F80090FFF7E6FD61
:10082000074604E0FFF7E2FDC01B02280FD8686A04
:100830008007F7D571484FF4FA510068B0FBF1F02A
:10084000009000BF0098411E0091FAD20EE080E0B7
:10085000C0F80080FFF7CAFD074604E0FFF7C6FDB9
:10086000C01B022875D8686A8007F7D42078400733
:1008700060D5E8690027C00008D4E86940F08050DE
:10088000E861E869012700F0805000905C48016849
:10089000C90513D40168834641F480710160FFF7F4
:1008A000A5FD824606E000BFFFF7A0FDA0EB0A0011
:1008B00064284ED8DBF80000C005F5D5E0680128B3
:1008C0000AD008B1052813D0286A20F00100286258
:1008D000286A20F0040002E0286A40F00100286243
:1008E000E06841F2883B98B1FFF780FD82460BE05B
:1008F000286A40F004002862EEE700BFFFF776FDAB
:10090000A0EB0A0159455AD8286A8007F6D50CE0B1
:10091000FFF76CFD824605E0FFF768FDA0EB0A01DA
:1009200059454CD8286A8007F6D41FB1E86920F0F1
:100930008050E861E06988B36968C1F381010229E8
:1009400044D00228C6F8608004D0FFF74FFD04466B
:1009500038E034E0FFF74AFD074604E0FFF746FDC4
:10096000C01B02282BD828688001F7D4206AB0F574
:10097000803F05D16868A16820F4003008436860B2
:10098000D4E908010843696821F4741108436860D8
:10099000C6F86090FFF72AFD044606E025E000BF98
:1009A000FFF724FD001B022809D828688001F7D52D
:1009B0001BE000BFFFF71AFD001B022802D903202D
:1009C000BDE8F88F28688001F4D40EE00128F7D044
:1009D0006868226A00F48031914204D1616A00F4AF
:1009E0007010884201D00120EAE70020E8E700000B
:1009F00000100240000042428004424210000020E9
:100A00000070004010B5401EB0F1807F01D301207E
:100A100010BD4FF0E02460610F21601700F07BFAF9
:100A20000020A06107202061002010BD70B50400E7
:100A300004D094F83D00002510B106E0012070BDFF
:100A400084F83C50204600F023F8242084F83D0030
:100A50002068C16821F40051C160204600F0CCF943
:100A60002068016921F4904101612068416921F009
:100A70002A0141612068C16841F40051C1602564C8
:100A8000202084F83D0084F83E00002070BD000066
:100A900030B585B00024009401940294039400685A
:100AA0001449884224D11448816941F4804181610C
:100AB000816901F480410491816941F004018161FF
:100AC00080690E4D00F0040004904FF40070009017
:100AD000022001900320039069462846FFF780FB1F
:100AE0002815CDE90004694628460294FFF778FBF3
:100AF00005B030BD00380140001002400008014040
:100B00002DE9F843044690F83D001F4616460D4671
:100B100020284CD1C5B1BEB194F83C00012846D084
:100B2000012084F83C004FF00008C4F840802120E8
:100B300084F83D00FFF75AFCA6848146E684A0684D
:100B4000B0F5805F03D004E00120BDE8F8832069A0
:100B500028B12E465FF0000584F83C800EE00026A8
:100B6000FAE78021204600F0A3F9A0B9AEB116F84B
:100B7000010B21684860E08C401EE084E08C4B460D
:100B80004FF0000200970028EBD14FF040012046C3
:100B900000F08EF930B10320D7E735F8020BC0F32F
:100BA0000800E6E7202084F83D000020CDE7022081
:100BB000CBE7FEE770B51E4D4FF480712846FFF776
:100BC0000BFC1C4CC000691520702846FFF704FC84
:100BD000217841EA8000207029152846FFF7FCFBA8
:100BE000217841EA40002070E9142846FFF7F4FB21
:100BF0002178084320700F280FD00A20FFF7DEFA73
:100C000020780F2809D000F00F00072807D00B2804
:100C100007D00D2807D00E2807D0002070BD012076
:100C200070BD022070BD032070BD042070BD0000A7
:100C300000180140000000202DE9F0412F4E002453
:100C40004FF48057224639463046FFF7CAFBFFF77C
:100C5000B1FF050005D000BFFFF7ACFF0028FBD1B6
:100C60002C460122394635463046FFF7BAFB4FF491
:100C70000057002239462846FFF7B3FBFFF79AFFDB
:100C8000060005D0FFF796FF0028FBD1361DF4B211
:100C9000012239462E462846FFF7A3FB4FF4804732
:100CA000002239463046FFF79CFBFFF783FF050023
:100CB00006D000BFFFF77EFF0028FBD10835ECB25D
:100CC000012239463046FFF78CFB4FF400470022E3
:100CD00039463046FFF785FBFFF76CFF050005D06E
:100CE000FFF768FF0028FBD10C35ECB20122394632
:100CF0003046FFF776FB2046BDE8F0810018014042
:100D000070B586B0002418480094019402940394AE
:100D1000816941F040018161816901F040010491E4
:100D2000816941F0040181618069104E00F0040086
:100D30004FF470450490002229463046FFF751FBDE
:100D40002811CDE90004694630460294FFF748FABD
:100D500001200095CDE90104022003906946304648
:100D6000FFF73EFA06B070BD0010024000180140C7
:100D70000C4810B50A4901604FF4E131416000218F
:100D800081600C22C160C0E904128161C161FFF77A
:100D90004DFE002803D0BDE81040FFF70DBA10BD8E
:100DA0000038014014000020FEE77047704770478C
:100DB000FFF722BB10B590B028216846FFF7DDF998
:100DC00014210AA8FFF7D9F902200090012004900D
:100DD00010200024059007946846FFF783FC0F203D
:100DE000CDE90A040C940D9400210AA80E94FFF793
:100DF0008DFB10B010BD704770B5044600680169E6
:100E0000E26821F44051114301612169A06808435F
:100E1000616908432168CA6841F20C639A4302433E
:100E2000CA6020684169A26921F44071114341619F
:100E30001E492068884202D1FFF70EFC01E0FFF74F
:100E4000FBFB00EBC00101EB001260686421800035
:100E5000B2FBF0F3B3FBF1F36FF018067343B2FB90
:100E6000F0F5B2FBF0F605EB8305322303EB051535
:100E7000B5FBF1F5B6FBF1F605F0F00505EB06154F
:100E8000B2FBF0F6B2FBF0F0B0FBF1F06FF018023D
:100E9000504306EB800003EB0010B0FBF1F021683B
:100EA00000F00F002844886070BD00000038014049
:100EB0002DE9F041984617460E460446069D1DE072
:100EC000681C1BD02DB1FFF791FAA0EB0800A842D7
:100ED00014D92068C16821F4D071C16020684169CB
:100EE00021F001014161202084F83D0084F83E009A
:100EF000002084F83C000320BDE8F08120680068F1
:100F000036EA000004D00020B842D9D00020F3E730
:100F10000120F9E7FEE70907090E002804DB00F1CC
:100F2000E02080F80014704700F00F0000F1E0208E
:100F300080F8141D704702E008C8121F08C1002A7B
:100F4000FAD170477047002001E001C1121F002A4A
:100F5000FBD17047FFF758FAFFF72CFFFFF7D0FEE1
:100F6000FFF706FF084C4FF6FF7500BFFFF764FE62
:100F700020702B46012204490448FFF7C1FD64207C
:100F8000FFF71CF9F2E70000000000201400002029
:100F90000000000000000000010203040607080929
:100FA0000000000001020304C80F00080000002038
:100FB00014000000360F0008DC0F000814000020A9
:100FC00044040000460F000800000000010000007B
:0C0FD00010000000000000000024F400ED
:0400000508000131BD
:00000001FF
