:020000040800F2
:1000000058040020490100087F0E0008B10D0008C7
:100010007D0E0008B5010008631100080000000013
:10002000000000000000000000000000830E000837
:10003000B701000800000000810E0008850E0008CE
:100040006301000863010008630100086301000800
:1000500063010008630100086301000863010008F0
:1000600063010008630100086301000863010008E0
:1000700063010008630100086301000863010008D0
:1000800063010008630100086301000863010008C0
:1000900063010008630100086301000863010008B0
:1000A00063010008630100086301000863010008A0
:1000B0006301000863010008630100086301000890
:1000C0006301000863010008630100086301000880
:1000D0006301000863010008630100086301000870
:1000E0006301000863010008630100086301000860
:1000F0006301000863010008630100086301000850
:10010000630100086301000863010008630100083F
:10011000630100086301000863010008630100082F
:10012000630100086301000863010008630100081F
:10013000DFF810D000F02CF800480047A5110008A7
:10014000AFF3008058040020064880470648004767
:10015000FEE7FEE7FEE7FEE7FEE7FEE7FEE7FEE777
:10016000FEE7FEE7CB0E000831010008D2B201E045
:1001700000F8012B491EFBD270470022F6E710B5AC
:1001800013460A4604461946FFF7F0FF204610BD05
:10019000064C074D06E0E06840F0010394E80700D4
:1001A00098471034AC42F6D3FFF7C6FFD4110008CD
:1001B000F4110008FEE77047704700002DE9F84F82
:1001C000DFF8C891002409F1040A0AF1040B234660
:1001D0000F270BF1040ED1E00125A54006EA050228
:1001E000AA4276D1DFF8A8C14E68A6EB0C08664596
:1001F0002BD00DDC032E34D005DC36B3012E19D004
:10020000022E2FD11BE0112E16D0122E2AD119E06A
:10021000B8F5881F19D006DCB8F5803F15D0B8F5C1
:10022000801F1FD111E0B8F5001F0ED0B8F5041FD4
:1002300018D10AE0CB6815E0CB681B1D12E0CB6833
:1002400008330FE0CB680C330CE08B682BB1012B2B
:100250004FF0080303D0456104E0042302E0056188
:1002600000E00023FF2A01D8064601E000F1040661
:100270004FEA840501D9A5F12005D6F8008007FAD8
:1002800005FC28EA0C0803FA05F548EA0508C6F853
:1002900000804D68ED0070D53E4DAE6946F0010618
:1002A000AE61AD6924F0030605F0010500953A4DF5
:1002B00006EB050CDCF80850A607360F07FA06F81F
:1002C00025EA0805DFF8D480404503D14FF0000847
:1002D00025E052E0DFF8C880404502D14FF0010828
:1002E0001DE0DFF8C080404502D14FF0020816E063
:1002F000DFF8B480404502D14FF003080FE0DFF88B
:10030000AC80404502D14FF0040808E0DFF8A0803F
:10031000404502D14FF0050801E04FF0060808FA09
:1003200006F848EA0508CCF808804D68D9F800605E
:10033000ED034D4601D5164300E096432E604D680F
:10034000DAF80060AD03554601D5164300E0964348
:100350002E604D68DBF80060ED025D4601D5164366
:1003600000E096432E604D68DEF80060AD027546F1
:1003700001D5164300E096432E60641C0A681646B9
:10038000E2407FF429AFBDE8F88F0000000401408F
:100390000000111000100240000001400008014060
:1003A000000C014000100140001401400018014001
:1003B000001C0140014880687047000000000020D8
:1003C0000248816802781144816070470000002073
:1003D000074810B5016841F010010160032000F0EA
:1003E00067F8002000F006F800F024F8002010BDA7
:1003F0000020024070B50D4D04464FF47A71287804
:10040000B1FBF0F00A490968B1FBF0F000F0BEFA68
:1004100048B9102C07D200222146501E00F028F8BF
:1004200000206C6070BD012070BD00000000002045
:100430000C0000200C4808B5816941F00101816180
:10044000816901F001010091C16941F08051C161F0
:10045000C06900F0805000900448416821F0E061DC
:1004600041F00071416008BD0010024000000140F1
:10047000F0B40E4B1B680C46C3F30223C3F107050F
:10048000042D00D90425191D072901D2002300E0FD
:10049000DB1E012606FA05F1491E214099409E40C7
:1004A000761E16403143F0BC00F05CBE0CED00E05F
:1004B000064900F0070208684FF6FF03184040EABB
:1004C0000220034A10430860704700000CED00E072
:1004D0000000FA052DE9F0470F46050061D0434EB4
:1004E000306800F00700B84209D2306820F00700F9
:1004F00038433060306800F00700B84251D12868B6
:100500003B4C810712D5400703D5606840F4E0609A
:1005100060602878000703D5606840F46050606030
:100520006068A96820F0F000084360602878C00780
:1005300028D06868012810D02168022810D08907C7
:1005400000292EDA616821F0030101436160FFF7A1
:1005500031FF804641F288390DE021688903EFE7D9
:100560008901EDE7FFF726FFA0EB0801494502D915
:100570000320BDE8F0876068696800F00C00B0EB0C
:10058000810FEFD1306800F00700B8420BD9306816
:1005900020F0070038433060306800F00700B842B0
:1005A00001D00120E5E72878400705D56068E968B3
:1005B00020F4E060084360602878000706D5606892
:1005C000296920F4605040EAC100606000F018F82A
:1005D0006168084AC1F30311515CC84006490860CC
:1005E00006480068FFF706FF0020C2E7002002402F
:1005F00000100240C41100080C000020040000207C
:1006000012A185B00FC98DE80F0014A0144A00682C
:1006100004905168134801F00C03042B10D0082BF0
:100620000ED1C1F38343C9031DF803000AD55168F5
:1006300004AAC1F34041515C0A4A5043B0FBF1F0B7
:1006400005B0704708494843FAE700000203040573
:10065000060708090A0B0C0D0E0F1010010200000E
:100660000010024000127A0000093D002DE9F84F09
:10067000040070D02078C04DC00749D06868C0F32E
:100680008100012807D06868C0F38100022809D1E1
:100690006868C00306D52868800339D560680028DB
:1006A000E7D035E06068B0F5803F0BD010B1B0F511
:1006B000A02F11D0286820F480302860286820F40A
:1006C000802002E0286840F480302860606890B1A3
:1006D000FFF770FE06460AE0286840F48020286094
:1006E000F0E700BFFFF766FE801B642873D8286818
:1006F0008003F7D50CE0FFF75DFE064605E000BF7E
:10070000FFF758FE801B6428F0D828688003F7D4D0
:1007100020789A4E80074FF001094FF0000839D534
:10072000686810F00C0F07D06868C0F381000228D9
:1007300009D16868C00306D42868800714D52069E9
:10074000012808D110E02069B0B1C6F80090FFF789
:1007500031FE074605E00AE1FFF72CFEC01B022828
:10076000C4D828688007F7D52868616920F0F800A8
:1007700040EAC10028600DE0C6F80080FFF71AFECD
:10078000074604E0FFF716FEC01B022823D828689E
:100790008007F7D4207800072CD57948A169D9B112
:1007A000C0F80090FFF706FE074604E0FFF702FEE0
:1007B000C01B02280FD8686A8007F7D571484FF42C
:1007C000FA510068B0FBF1F0009000BF0098411EA4
:1007D0000091FAD20EE080E0C0F80080FFF7EAFD59
:1007E000074604E0FFF7E6FDC01B022875D8686ADB
:1007F0008007F7D42078400760D5E8690027C0005B
:1008000008D4E86940F08050E861E869012700F009
:10081000805000905C480168C90513D40168834684
:1008200041F480710160FFF7C5FD824606E000BF1C
:10083000FFF7C0FDA0EB0A0064284ED8DBF80000EB
:10084000C005F5D5E06801280AD008B1052813D005
:10085000286A20F001002862286A20F0040002E0E3
:10086000286A40F001002862E06841F2883B98B1B4
:10087000FFF7A0FD82460BE0286A40F004002862E2
:10088000EEE700BFFFF796FDA0EB0A0159455AD8E5
:10089000286A8007F6D50CE0FFF78CFD824605E05C
:1008A000FFF788FDA0EB0A0159454CD8286A80075C
:1008B000F6D41FB1E86920F08050E861E06988B3A0
:1008C0006968C1F38101022944D00228C6F860801A
:1008D00004D0FFF76FFD044638E034E0FFF76AFD0F
:1008E000074604E0FFF766FDC01B02282BD82868E6
:1008F0008001F7D4206AB0F5803F05D16868A1680F
:1009000020F4003008436860D4E9080108436968AE
:1009100021F4741108436860C6F86090FFF74AFD3F
:10092000044606E025E000BFFFF744FD001B022857
:1009300009D828688001F7D51BE000BFFFF73AFD12
:10094000001B022802D90320BDE8F88F2868800127
:10095000F4D40EE00128F7D06868226A00F48031F0
:10096000914204D1616A00F47010884201D00120E4
:10097000EAE70020E8E700000010024000004242E1
:10098000800442420C0000200070004010B5401E60
:10099000B0F1807F01D3012010BD4FF0E0246061F1
:1009A0000F21601700F0DEFB0020A061072020610E
:1009B000002010BD70B590F83C20012A2CD00124F5
:1009C00080F83C40022280F83D2003685A689D6808
:1009D00022F070060A6832435A60104B02689A424D
:1009E0000ED00F4B9A420BD0B2F1804F08D00D4B76
:1009F0009A4205D00C4B9A4202D00C4B9A4204D139
:100A0000496825F080031943916080F83D4000213A
:100A100080F83C10084670BD022070BD002C0140DB
:100A2000003401400004004000080040000C004079
:100A300010B5040003D094F83D0010B107E0012088
:100A400010BD002084F83C00204600F01FF8022072
:100A500084F83D00211D206800F038FA012084F858
:100A6000460084F83E0084F83F0084F8400084F893
:100A7000410084F8420084F8430084F8440084F87C
:100A8000450084F83D00002010BD000008B5006856
:100A90000649884208D10648C16941F00201C16196
:100AA000C06900F00200009008BD00000004004092
:100AB0000010024070B5044690F83C00012817D0A1
:100AC000012584F83C50022084F83D0020688268AB
:100AD00022F0770222F47F4282600868502830D0EA
:100AE0000DDC20284DD005DC98B310283BD148E020
:100AF000022070BD302844D0402834D139E060282D
:100B000028D0702806D0B0F5805F2CD0B0F5005FFB
:100B100029D10AE0CB68D1E90121206800F029FA47
:100B20002068816841F0770109E0CB68D1E90121B3
:100B3000206800F01EFA2068816841F480418160DD
:100B400011E0CA684968206800F0E8FA502120687E
:100B500007E016E0CA684968206800F0F0FA6021F2
:100B6000206800F010FA84F83D50002084F83C0022
:100B700070BDCA684968206800F0D0FA402120683A
:100B8000EFE7226801461046EBE7000000B585B0AC
:100B90000021009101910291039100680B49884264
:100BA00011D10B48816941F0040181618069694676
:100BB00000F0040004904020009002200190039077
:100BC0000448FFF7FBFA05B000BD00000004004038
:100BD000001002400008014070B5044690F83C0047
:100BE0000D4601280AD0012084F83C0042B1042AB5
:100BF00018D0082A2AD00C2A4DD139E0022070BD25
:100C0000206800F0C9F92068816941F0080181611C
:100C10002068816921F004018161206881692A6965
:100C2000114311E0206800F0E7F92068816941F480
:100C3000006181612068816921F48061816120689F
:100C400081692A6941EA0221816124E0206800F07B
:100C500009FA2068C16941F00801C1612068C169D1
:100C600021F00401C1612068C1692A69114311E0C2
:100C7000206800F02BFA2068C16941F40061C1616D
:100C80002068C16921F48061C1612068C1692A6955
:100C900041EA0221C161002084F83C0070BD10B51A
:100CA000040003D094F83D0010B107E0012010BD0E
:100CB000002084F83C00204600F01EF8022084F852
:100CC0003D00211D206800F001F9012084F8460054
:100CD00084F83E0084F83F0084F8400084F8410026
:100CE00084F8420084F8430084F8440084F8450006
:100CF00084F83D00002010BD7047000010B5044688
:100D0000022249B104290ED0082913D094F84100D9
:100D1000012816D0012010BD94F83E000128F9D119
:100D200084F83E200FE094F83F000128F2D184F8C7
:100D30003F2008E094F840000128EBD184F84020DF
:100D400001E084F841200122206800F005F91349F0
:100D50002068134A884201D0904203D1436C43F487
:100D600000434364206888420DD090420BD0B0F11C
:100D7000804F08D00B49884205D00B49884202D0E9
:100D80000A49884204D1816801F00701062903D08D
:100D9000016841F001010160002010BD002C0140FC
:100DA000003401400004004000080040000C0040F6
:100DB000FEE70000094808B5816941F0040181613E
:100DC000816901F004010091816941F008018161AC
:100DD000806900F00800009008BD0000001002408B
:100DE00010B58EB000240794089409940A940B94CB
:100DF0001C2168460C94FFF7C0F91F481D4901608B
:100E00000821C0E9011440F2E731C0E90314802150
:100E10008161FFF70DFE08B1FFF7CEF94FF4805066
:100E2000079007A91448FFF745FE08B1FFF7C4F97A
:100E30001148FFF734FF08B1FFF7BEF90B940BA977
:100E40000D480C94FFF7B6FD08B1FFF7B5F9602027
:100E50000090C720CDE901040022694606480494A9
:100E6000FFF7BAFE08B1FFF7A7F90348FFF78EFEB8
:100E70000EB010BD0004004010000020FEE77047D7
:100E800070477047FFF79CBA10B590B028216846AC
:100E9000FFF773F914210AA8FFF76FF902200090F9
:100EA0000120049010200024059007946846FFF765
:100EB000DDFB0F20CDE90A040C940D9400210AA853
:100EC0000E94FFF707FB10B010BD7047F0B5026835
:100ED0001C4B1D4D1D4E1E4F1E4C4FF0804C98421A
:100EE00009D0A04207D0604505D0A84203D0B04247
:100EF00001D0B84204D122F0700E4A6842EA0E02D4
:100F0000984209D0A04207D0604505D0A84203D03E
:100F1000B04201D0B84203D122F44075CA682A43D6
:100F20004D6922F080022A4302608A68C2620A6820
:100F30008262984201D0A04201D109690163012176
:100F40004161F0BD002C0140000400400008004059
:100F5000000C00400034014010B501F01F030121D6
:100F6000046A99408C430462016A9A401143016209
:100F700010BD10B5846842EA032224F47F440A437A
:100F80002243826010BD826822F070020A4342F060
:100F90000701816070470000F0B5026A22F001028B
:100FA0000262036A42688469124E24F073050C6879
:100FB0002C4323F002058B682B430D4DA84201D032
:100FC000B04205D123F00807CB683B4323F004036C
:100FD000A84201D0B04205D14D6922F440721543B8
:100FE0008A692A4342608461496841630362F0BDB3
:100FF000002C014000340140F0B5026A22F01002DA
:101000000262026A436884690D6824F4E64444EA93
:1010100005248D6822F0200242EA05120F4D104E81
:10102000A84201D0B04206D1CF6822F0800242EA45
:10103000071222F04002A84201D0B04207D14D6908
:1010400023F4406343EA85038D6943EA85034360E3
:101050008461496881630262F0BD0000002C014098
:1010600000340140F0B5026A22F480720262026A22
:101070004368C46922F4007224F073050C68124EB0
:101080002C438D6842EA05220E4DA84201D0B042A1
:1010900006D1CF6822F4006242EA072222F480627D
:1010A000A84201D0B04207D14D6923F4405343EA2E
:1010B00005138D6943EA05134360C4614968C16340
:1010C0000262F0BD002C01400034014030B5026ADC
:1010D00022F480520262046A4268C3690D6823F4F4
:1010E000E64343EA05238D6824F4005444EA0534BA
:1010F000084DA84202D0084DA84204D14D6922F4FF
:10110000804242EA85124260C36149680164046218
:1011100030BD0000002C01400034014010B5036ACE
:10112000046A24F001040462846924F0F00444EAAF
:10113000021423F00A020A438461026210BD10B552
:10114000036A23F0100303628369046A23F4704383
:1011500043EA023224F0A00343EA011182610162F2
:1011600010BDFEE70907090E002804DB00F1E020AE
:1011700080F80014704700F00F0000F1E02080F8C4
:10118000141D704702E008C8121F08C1002AFAD1D6
:1011900070477047002001E001C1121F002AFBD1F7
:1011A00070470000FFF714F9FFF76EFEFFF702FE2D
:1011B000FFF716FE00210248FFF7A0FDFEE7000042
:1011C00010000020000000000000000001020304E5
:1011D00006070809F41100080000002010000000B4
:1011E00084110008041200081000002048040000C8
:1011F0009411000801000000100000000000000031
:041200000024F400D2
:0400000508000131BD
:00000001FF
