:020000040800F2
:1000000018040020490100081B0B0008E109000842
:10001000190B0008B5010008690B0008000000007A
:100020000000000000000000000000001F0B00089E
:10003000B7010008000000001D0B0008210B00089C
:100040006301000863010008630100086301000800
:1000500063010008630100086301000863010008F0
:1000600063010008630100086301000863010008E0
:1000700063010008630100086301000863010008D0
:1000800063010008630100086301000863010008C0
:1000900063010008630100086301000863010008B0
:1000A00063010008630100086301000863010008A0
:1000B0006301000863010008630100086301000890
:1000C0006301000863010008630100086301000880
:1000D0006301000863010008630100086301000870
:1000E0006301000863010008630100086301000860
:1000F0006301000863010008630100086301000850
:10010000630100086301000863010008630100083F
:10011000630100086301000863010008630100082F
:10012000630100086301000863010008630100081F
:10013000DFF810D000F02CF800480047190C000838
:10014000AFF30080180400200648804706480047A7
:10015000FEE7FEE7FEE7FEE7FEE7FEE7FEE7FEE777
:10016000FEE7FEE7670B000831010008D2B201E0AC
:1001700000F8012B491EFBD270470022F6E710B5AC
:1001800013460A4604461946FFF7F0FF204610BD05
:10019000064C074D06E0E06840F0010394E80700D4
:1001A00098471034AC42F6D3FFF7C6FF700C000836
:1001B000900C0008FEE7704770B5044600F010F997
:1001C0000546601C02D004480078044400F008F999
:1001D000401BA042FAD370BD040000202DE9F84F67
:1001E000DFF8C891002409F1040A0AF1040B234640
:1001F0000F270BF1040ED1E00125A54006EA050208
:10020000AA4276D1DFF8A8C14E68A6EB0C08664575
:100210002BD00DDC032E34D005DC36B3012E19D0E3
:10022000022E2FD11BE0112E16D0122E2AD119E04A
:10023000B8F5881F19D006DCB8F5803F15D0B8F5A1
:10024000801F1FD111E0B8F5001F0ED0B8F5041FB4
:1002500018D10AE0CB6815E0CB681B1D12E0CB6813
:1002600008330FE0CB680C330CE08B682BB1012B0B
:100270004FF0080303D0456104E0042302E0056168
:1002800000E00023FF2A01D8064601E000F1040641
:100290004FEA840501D9A5F12005D6F8008007FAB8
:1002A00005FC28EA0C0803FA05F548EA0508C6F833
:1002B00000804D68ED0070D53E4DAE6946F00106F8
:1002C000AE61AD6924F0030605F0010500953A4DD5
:1002D00006EB050CDCF80850A607360F07FA06F8FF
:1002E00025EA0805DFF8D480404503D14FF0000827
:1002F00025E052E0DFF8C880404502D14FF0010808
:100300001DE0DFF8C080404502D14FF0020816E042
:10031000DFF8B480404502D14FF003080FE0DFF86A
:10032000AC80404502D14FF0040808E0DFF8A0801F
:10033000404502D14FF0050801E04FF0060808FAE9
:1003400006F848EA0508CCF808804D68D9F800603E
:10035000ED034D4601D5164300E096432E604D68EF
:10036000DAF80060AD03554601D5164300E0964328
:100370002E604D68DBF80060ED025D4601D5164346
:1003800000E096432E604D68DEF80060AD027546D1
:1003900001D5164300E096432E60641C0A68164699
:1003A000E2407FF429AFBDE8F88F0000000401406F
:1003B0000000111000100240000001400008014040
:1003C000000C0140001001400014014000180140E1
:1003D000001C01400AB1016170470904FBE70000FD
:1003E00001488068704700000400002002488168CE
:1003F000027811448160704704000020074810B55E
:10040000016841F010010160032000F067F800204E
:1004100000F006F800F024F8002010BD0020024093
:1004200070B50D4D04464FF47A712878B1FBF0F0A9
:100430000A490968B1FBF0F000F0BEFA48B9102C87
:1004400007D200222146501E00F028F800206C60E0
:1004500070BD012070BD00000400002010000020CD
:100460000C4808B5816941F001018161816901F0A1
:1004700001010091C16941F08051C161C06900F082
:10048000805000900448416821F0E06141F0007123
:10049000416008BD0010024000000140F0B40E4B66
:1004A0001B680C46C3F30223C3F10705042D00D9D2
:1004B0000425191D072901D2002300E0DB1E0126B7
:1004C00006FA05F1491E214099409E40761E1640CD
:1004D0003143F0BC00F049BB0CED00E0064900F0F0
:1004E000070208684FF6FF03184040EA0220034A5B
:1004F00010430860704700000CED00E00000FA05B2
:100500002DE9F0470F46050061D0434E306800F0FA
:100510000700B84209D2306820F007003843306045
:10052000306800F00700B84251D128683B4C810781
:1005300012D5400703D5606840F4E0606060287819
:10054000000703D5606840F4605060606068A96887
:1005500020F0F000084360602878C00728D0686861
:10056000012810D02168022810D0890700292EDA2E
:10057000616821F0030101436160FFF731FF8046AC
:1005800041F288390DE021688903EFE78901EDE741
:10059000FFF726FFA0EB0801494502D90320BDE87B
:1005A000F0876068696800F00C00B0EB810FEFD154
:1005B000306800F00700B8420BD9306820F007001F
:1005C00038433060306800F00700B84201D00120A5
:1005D000E5E72878400705D56068E96820F4E06021
:1005E000084360602878000706D56068296920F410
:1005F000605040EAC100606000F018F86168084A85
:10060000C1F30311515CC840064908600648006800
:10061000FFF706FF0020C2E7002002400010024062
:10062000600C0008100000200800002012A185B016
:100630000FC98DE80F0014A0144A00680490516897
:10064000134801F00C03042B10D0082B0ED1C1F37A
:100650008343C9031DF803000AD5516804AAC1F3F6
:100660004041515C0A4A5043B0FBF1F005B070477D
:1006700008494843FAE70000020304050607080991
:100680000A0B0C0D0E0F10100102000000100240AA
:1006900000127A0000093D002DE9F84F040070D0E7
:1006A0002078C04DC00749D06868C0F38100012898
:1006B00007D06868C0F38100022809D16868C003C8
:1006C00006D52868800339D560680028E7D035E072
:1006D0006068B0F5803F0BD010B1B0F5A02F11D0FD
:1006E000286820F480302860286820F4802002E008
:1006F000286840F480302860606890B1FFF770FE91
:1007000006460AE0286840F480202860F0E700BF31
:10071000FFF766FE801B642873D828688003F7D52E
:100720000CE0FFF75DFE064605E000BFFFF758FE50
:10073000801B6428F0D828688003F7D420789A4E6C
:1007400080074FF001094FF0000839D5686810F0B4
:100750000C0F07D06868C0F38100022809D16868CF
:10076000C00306D42868800714D52069012808D161
:1007700010E02069B0B1C6F80090FFF731FE0746DF
:1007800005E00AE1FFF72CFEC01B0228C4D8286848
:100790008007F7D52868616920F0F80040EAC100B9
:1007A00028600DE0C6F80080FFF71AFE074604E057
:1007B000FFF716FEC01B022823D828688007F7D44D
:1007C000207800072CD57948A169D9B1C0F80090EC
:1007D000FFF706FE074604E0FFF702FEC01B0228F3
:1007E0000FD8686A8007F7D571484FF4FA5100684E
:1007F000B0FBF1F0009000BF0098411E0091FAD2CA
:100800000EE080E0C0F80080FFF7EAFD074604E054
:10081000FFF7E6FDC01B022875D8686A8007F7D489
:100820002078400760D5E8690027C00008D4E8694F
:1008300040F08050E861E869012700F080500090A6
:100840005C480168C90513D40168834641F480718E
:100850000160FFF7C5FD824606E000BFFFF7C0FD5F
:10086000A0EB0A0064284ED8DBF80000C005F5D5DF
:10087000E06801280AD008B1052813D0286A20F0C2
:1008800001002862286A20F0040002E0286A40F093
:1008900001002862E06841F2883B98B1FFF7A0FDB3
:1008A00082460BE0286A40F004002862EEE700BFB1
:1008B000FFF796FDA0EB0A0159455AD8286A800730
:1008C000F6D50CE0FFF78CFD824605E0FFF788FDCA
:1008D000A0EB0A0159454CD8286A8007F6D41FB10D
:1008E000E86920F08050E861E06988B36968C1F385
:1008F0008101022944D00228C6F8608004D0FFF7A5
:100900006FFD044638E034E0FFF76AFD074604E077
:10091000FFF766FDC01B02282BD828688001F7D49A
:10092000206AB0F5803F05D16868A16820F40030E6
:1009300008436860D4E908010843696821F4741128
:1009400008436860C6F86090FFF74AFD044606E079
:1009500025E000BFFFF744FD001B022809D82868E6
:100960008001F7D51BE000BFFFF73AFD001B02280E
:1009700002D90320BDE8F88F28688001F4D40EE086
:100980000128F7D06868226A00F48031914204D1CE
:10099000616A00F47010884201D00120EAE700206B
:1009A000E8E700000010024000004242800442429A
:1009B000100000200070004010B5401EB0F1807F94
:1009C00001D3012010BD4FF0E02460610F216017BA
:1009D00000F0CBF80020A06107202061002010BDAE
:1009E000FEE700002DE9F0411C4E0C4605460022B2
:1009F0004FF400713046FFF7EDFCB1155CB10122F8
:100A00003046FFF7E7FC0120FFF7D6FB0124A046A4
:100A10004FF6FF7703E00022F2E7082C02D828EA1D
:100A2000050201E005F0010221463046FFF7D2FC45
:100A30006D0807EA4404802CEFD901229402214674
:100A40003046FFF7C7FC002221463046FFF7C2FCC4
:100A5000BDE8F0410120FFF7AFBB0000001C0140E2
:100A60002DE9F04385B000242948009401940294B4
:100A70000394816941F080018161816901F0800105
:100A80000491816941F0040181618069012200F0D3
:100A90000400DFF880905703049039464846FFF77A
:100AA00099FC00224FF4B8514846FFF793FC4FF4ED
:100AB0008048002241464846FFF78CFC4FF4F8502E
:100AC00001250226CDE90005CDE9024669464846E2
:100AD000FFF784FBFF20CDE90005CDE9024669461A
:100AE0004846FFF77BFB00970396CDE90154694622
:100AF0004846FFF773FBCDF800800396CDE901541B
:100B000069464846FFF76AFB05B0BDE8F083000080
:100B100000100240001C0140FEE77047704770471C
:100B2000FFF764BC10B590B028216846FFF725FB9D
:100B300014210AA8FFF721FB022000900120049055
:100B400010200024059007946846FFF7A5FD0F20AC
:100B5000CDE90A040C940D9400210AA80E94FFF725
:100B6000CFFC10B010BD7047FEE70907090E002842
:100B700004DB00F1E02080F80014704700F00F0063
:100B800000F1E02080F8141D704702E008C8121F31
:100B900008C1002AFAD170477047002001E001C166
:100BA000121F002AFBD1704770B5144C0122D102EC
:100BB0002046FFF70FFC0120FFF7FEFAA5140022E4
:100BC00029462046FFF706FC0120FFF7F5FA01222F
:100BD00029462046FFF7FEFB00213020FFF702FFE9
:100BE00000213020FFF7FEFE00210C20FFF7FAFE67
:100BF000BDE8704000210120FFF7F4BE001C014059
:100C000010B5044603E00121FFF7ECFE641C2078D8
:100C10000028F8D110BD0000FFF7F0FBFFF782FFBE
:100C2000FFF71EFF0A20FFF7C7FA0B4C0122510302
:100C30002046FFF7CFFB00224FF480412046FFF70C
:100C4000C9FBFFF7B1FF00219120FFF7CBFE03485E
:100C5000FFF7D6FFFEE70000001C01400000002067
:100C6000000000000000000001020304060708095C
:100C7000900C000800000020140000008A0B0008FF
:100C8000A40C000814000020040400009A0B0008C3
:100C90004458470001000000100000000000000060
:040CA0000024F40038
:0400000508000131BD
:00000001FF
