:020000040800F2
:100000002812002049010008DB280008EF20000822
:10001000D9280008CF0200089B4400080000000017
:10002000000000000000000000000000F32B0008AA
:10003000D102000800000000F12B0008F52B000899
:100040006301000863010008630100086301000800
:1000500063010008630100086301000863010008F0
:1000600063010008630100086301000863010008E0
:1000700063010008630100086301000863010008D0
:1000800063010008630100086301000863010008C0
:1000900025440008630100086301000863010008AB
:1000A000630100085D2C000863010008630100087B
:1000B0006301000863010008630100086301000890
:1000C0006301000863010008630100086301000880
:1000D0006301000863010008630100086301000870
:1000E0006301000863010008630100086301000860
:1000F0006301000863010008630100086301000850
:10010000630100086301000863010008630100083F
:10011000630100086301000863010008630100082F
:10012000630100086301000863010008630100081F
:10013000DFF810D000F08EF8004800474D4A000864
:10014000AFF3008028120020064880470648004789
:10015000FEE7FEE7FEE7FEE7FEE7FEE7FEE7FEE777
:10016000FEE7FEE7592C000831010008202A04DBD5
:10017000203A21FA02F00021704721FA02F3D04020
:10018000C2F12002914008431946704740EA01033A
:100190009B0703D009E008C9121F08C0042AFAD23D
:1001A00003E011F8013B00F8013B521EF9D2704701
:1001B000D2B201E000F8012B491EFBD270470022A9
:1001C000F6E710B513460A4604461946FFF7F0FF56
:1001D000204610BD2DE9F05F0546002092469B4663
:1001E00088460646814640241BE02846414647464D
:1001F0002246FFF7BBFF53465A46C01A914110D31F
:1002000011461846224600F016F82D1A67EB010831
:100210004F4622460120002100F00DF817EB00099F
:100220004E41201EA4F10104DFDC484631462A4637
:100230004346BDE8F09F202A04DB203A00FA02F191
:10024000002070479140C2F1200320FA03F31943C4
:1002500090407047064C074D06E0E06840F001030F
:1002600094E8070098471034AC42F6D3FFF764FFD8
:10027000244C0008444C000870B58C1810F8015B41
:1002800015F0070301D110F8013B2A1106D110F82F
:10029000012B03E010F8016B01F8016B5B1EF9D133
:1002A0002B0705D40023521E0DD401F8013BFAE7B9
:1002B00010F8013BCB1A921C03E013F8015B01F824
:1002C000015B521EF9D5A142D8D3002070BDFEE7D4
:1002D0007047704770B5044600F010F90546601C81
:1002E00002D004480078044400F008F9401BA04202
:1002F000FAD370BD700000202DE9F84FDFF8C891E7
:10030000002409F1040A0AF1040B23460F270BF11C
:10031000040ED1E00125A54006EA0502AA4276D1E5
:10032000DFF8A8C14E68A6EB0C0866452BD00DDCA3
:10033000032E34D005DC36B3012E19D0022E2FD176
:100340001BE0112E16D0122E2AD119E0B8F5881F05
:1003500019D006DCB8F5803F15D0B8F5801F1FD145
:1003600011E0B8F5001F0ED0B8F5041F18D10AE04F
:10037000CB6815E0CB681B1D12E0CB6808330FE09B
:10038000CB680C330CE08B682BB1012B4FF00803CA
:1003900003D0456104E0042302E0056100E000238E
:1003A000FF2A01D8064601E000F104064FEA840561
:1003B00001D9A5F12005D6F8008007FA05FC28EA46
:1003C0000C0803FA05F548EA0508C6F800804D68F0
:1003D000ED0070D53E4DAE6946F00106AE61AD69E7
:1003E00024F0030605F0010500953A4D06EB050CD7
:1003F000DCF80850A607360F07FA06F825EA0805C4
:10040000DFF8D480404503D14FF0000825E052E0EA
:10041000DFF8C880404502D14FF001081DE0DFF849
:10042000C080404502D14FF0020816E0DFF8B480EA
:10043000404502D14FF003080FE0DFF8AC804045A3
:1004400002D14FF0040808E0DFF8A080404502D157
:100450004FF0050801E04FF0060808FA06F848EAF0
:100460000508CCF808804D68D9F80060ED034D46CA
:1004700001D5164300E096432E604D68DAF800601F
:10048000AD03554601D5164300E096432E604D68F6
:10049000DBF80060ED025D4601D5164300E09643AF
:1004A0002E604D68DEF80060AD02754601D516433A
:1004B00000E096432E60641C0A681646E2407FF412
:1004C00029AFBDE8F88F00000004014000001110C2
:1004D000001002400000014000080140000C0140F3
:1004E000001001400014014000180140001C0140B0
:1004F0000AB1016170470904FBE700000148806808
:10050000704700007000002070B5040025D094F8FA
:100510003D00002520B984F83C50204600F078FAD0
:10052000242084F83D002068016821F00101016069
:100530002068016841F4004101602068016821F4ED
:100540000041016001F0FEF84D4A6168914201D816
:100550004C4900E04C49884201D2012070BD4B4912
:100560002368B0FBF1F15E6826F03F060E435E6043
:100570006368934206D94FF4967359434FF47A73E4
:10058000B1FBF3F12368491C1E6A26F03F06314394
:1005900019626168914210D84900401EB0FBF1F227
:1005A000521CC2F30B02042A01D2042022E0B0FB49
:1005B000F1F0401CC0F30B001CE0A268F2B301EBA9
:1005C000C10303EB0116431EB3FBF6F35B1C43F4BC
:1005D00080431B0549D092B301EBC10202EB01112C
:1005E000401EB0FBF1F0401CC0F30B0040F4804013
:1005F00040F400402168CA694CF6FF739A431043E7
:10060000C861D4E9071001432068026822F0C002E3
:1006100011430160D4E9030101432068826848F274
:10062000FF339A4311438160D4E9050108432168EF
:10063000CA6822F0FF021043C86001E00EE016E035
:100640002068016841F0010101602564202084F8E0
:100650003D00256384F83E50002070BD01EB41064B
:10066000431EB3FBF6F35B1CB3E70120C2E701EBCB
:100670004101401EB0FBF1F0401CC0F30B00B7E796
:10068000A086010080841E0000093D0040420F004A
:100690002DE9FF4F83B00025DDE910799A46934696
:1006A0000446DDF848800095FFF728FF064694F8D9
:1006B0003D0020287CD1192301228549204600963F
:1006C00001F026FE0028F5D194F83C0001286FD0F7
:1006D000012084F83C0020680168C90703D1016843
:1006E00041F0010101602068016821F400610160AE
:1006F000222084F83D00402084F83E002564676293
:10070000A4F82A90608D20857248E062CDE90086C9
:1007100053465A462046049901F002FD00287DD137
:10072000208DDFF8B491202768B1012814D0022869
:10073000206801681ED041F4806101602068416931
:1007400080690090B6E02068416981690091016884
:1007500041F400710160ADE02068016821F480611E
:10076000016072B62068416981690091016841F4B5
:1007700000710AE041F40061016072B620684169CD
:1007800081690091016821F48061016062B691E0A5
:10079000032868D801280CD0022843464FF00002F5
:1007A0004946204600960FD001F0B2FDB0BB10E0E4
:1007B0008BE032464146204601F029FE70BB20689E
:1007C0000069616A08706CE001F0A2FD30BB72B68E
:1007D00034E02068016821F48061016072B620680D
:1007E0000069616A0870606A401C6062208D401E6A
:1007F0002085608D401E6085384846F2A81100684B
:10080000B0FBF1F0C0EBC00000EB80000090401E98
:10081000009008D020684069C04300E029E040070C
:100820000CD50098F3E744F8305F6773A57320692F
:1008300040F02000206162B625731AE0206801684C
:1008400041F40071016020680069616A0870606AA3
:10085000401C6062218D491E2185618D491E618584
:1008600062B621681BE032464146204601F0CFFDCA
:1008700018B1012007B0BDE8F08F20680069616AF7
:100880000870606A401C6062218D491E2185618D5F
:10089000491E618521684A69D24352070AD4096911
:1008A0000170606A401C6062208D401E2085608D52
:1008B000401E6085208D00287FF46AAF84F83D706B
:1008C00084F83E5084F83C50D4E70220D2E7000080
:1008D000020010000000FFFF040001007C00002067
:1008E0002DE9FF4F83B09A46DDE911979346044600
:1008F000DDF84080FFF702FE054694F83D00202811
:100900007FD11923012240492046009501F000FDC6
:10091000002876D194F83C00012872D0012084F898
:100920003C0020680168C90703D1016841F001015A
:1009300001602068016821F400610160212084F8D1
:100940003D00402084F83E0000262664C4F8248040
:10095000A4F82A90608D20852C48E062CDE90075CE
:1009600053465A462046049901F058FC70B930E0CD
:100970002A463946204601F07DFD58B1206C0428F6
:1009800004D12068016841F400710160012007B0C2
:10099000BDE8F08F606A216800780861606A401CD9
:1009A0006062218D491E89B22185628D521E628549
:1009B00022685369DB435B070BD469B1007810618F
:1009C000606A401C6062208D401E2085608D401E44
:1009D0006085208D0028CBD12A463946204601F07B
:1009E00071FC0028CAD154F83D0B016841F4007134
:1009F0000160202004F81E09E67766770020C6E72C
:100A0000FFE70220C3E70000020010000000FFFF24
:100A100010B586B000210091019102910391006808
:100A2000104988421BD1104CA06940F00800A06119
:100A3000A069694600F0080004904FF440600090FF
:100A400012200190032003900848FFF755FCE0694D
:100A500040F48000E061E06900F48000049006B09A
:100A600010BD00000058004000100240000C014082
:100A7000024881680278114481607047700000204C
:100A8000074810B5016841F010010160032000F033
:100A900075F8002000F006F800F024F8002010BDE2
:100AA0000020024070B50D4D04464FF47A7128784D
:100AB000B1FBF0F00A490968B1FBF0F001F02CF845
:100AC00048B9102C07D200222146501E00F036F8FB
:100AD00000206C6070BD012070BD0000700000201F
:100AE0007C0000200C4808B5816941F0010181615A
:100AF000816901F001010091C16941F08051C1613A
:100B0000C06900F0805000900448416821F0E06125
:100B100041F00071416008BD00100240000001403A
:100B2000002809DB00F01F020121914040098000EC
:100B300000F1E020C0F8001170470000F0B40E4B47
:100B40001B680C46C3F30223C3F10705042D00D92B
:100B50000425191D072901D2002300E0DB1E012610
:100B600006FA05F1491E214099409E40761E164026
:100B70003143F0BC03F0A2BC0CED00E0064900F0EC
:100B8000070208684FF6FF03184040EA0220034AB4
:100B900010430860704700000CED00E00000FA050B
:100BA00010B50C0607D501F0070101EB810100EB40
:100BB000C100283005E001EB810100EBC10000F528
:100BC000B47099B232B1012202730181190C4181D2
:100BD000002010BD00220273C180F9E7704701EBCD
:100BE000810200EBC202D0F8E802D26B02F085BBB2
:100BF00001EB810200EBC202D0F8E802D2F87C21BE
:100C000002F0DEBB70B504460B0601F0070000EBF6
:100C1000800104EBC1014FF001024FF0000503D544
:100C200081F82920283103E081F8695101F5B47178
:100C3000087094F8A802012808D084F8A822206837
:100C400002F0EEFF84F8A852002070BD022070BDB3
:100C500070B5044601F00F006268904201D901208E
:100C600070BD0B0601F0070000EB800104EBC10131
:100C70004FF001024FF0000503D581F829202831FB
:100C800003E081F8695101F5B4718D70087094F832
:100C9000A802012808D084F8A822206803F05DF893
:100CA00084F8A852002070BD022070BD2DE9F05FCD
:100CB00004685FEA424C0B788D69B4F850C04FF07D
:100CC00000064BF68F7948F2800A48F68F7B48F28F
:100CD000C00E4FF480672AD54FF0020808EBC30816
:100CE000C44407EB4C07E45BC4F30904A54203D3F7
:100CF0002D1B8D6101D00BE08E61066836F8235004
:100D000005EA090585F4005545EA0A0526F8235049
:100D1000520609D50D78036833F8252002EA0B0244
:100D200042EA0E0223F8252084B30A8929E04FF015
:100D3000060808EBC308C44407EB4C07E45BC4F3A4
:100D40000904A54203D32D1B8D6101D00BE08E61F8
:100D5000066836F8235005EA090585F4005545EA8A
:100D60000A0526F82350520609D40B78056835F891
:100D7000232002EA0B0242EA0E0225F823202CB1BE
:100D80004A8949690068234603F056FB2046BDE8BE
:100D9000F09F2DE9F05F054600680C465FEA426C63
:100DA00016468B692278B0F850C048F68F774CF21F
:100DB00080094FF6FF7B4FF4004E4FF4806A4FF0EE
:100DC00000017BD54FF0020808EBC208E0440AEBB3
:100DD000480C30F80C00C0F30900834211D91B1AEB
:100DE000A3610FD0730407D52E6836F822303B403C
:100DF00043EA090326F8223094F82420012A50D02F
:100E00004EE1A161607810B1012813D01AE0286882
:100E1000B0F85030184400EB0210B0F8042422F46B
:100E2000F842A0F80424B0F8042442F40042A0F8E8
:100E3000042407E02868B0F85030184400EB021092
:100E4000A0F804146278286812B1012A11D018E0C1
:100E5000B0F850100844217800EB0110B0F80C14E1
:100E600021F4F841A0F80C14B0F80C1441F400413E
:100E700005E0B0F850201044227800EB0210A0F8F2
:100E80000C1421782846FFF7AAFE7004B8D5217803
:100E90002A6832F82100384040EA090022F821008F
:100EA000FEE0626902446261E2690244E261236930
:100EB000226A9A4203D31846111A04E038E084F8F3
:100EC00024100AB110462162617811B1012923D0A2
:100ED0002BE02968B1F850201144227801EB02116F
:100EE00001F2044148B13E280FD84208C30700D0A0
:100EF000521C0BEA82220A8017E00A8822F4F84288
:100F00000A800A8842F40042F5E74209C30600D18C
:100F1000521E4EEA8222EEE72968B1F850201144B1
:100F2000227801EB0211A1F8040483B22289B3E014
:100F30004FF0060808EBC208E0440AEB480C30F812
:100F40000C00C0F30900834211D31B1AA3610FD018
:100F5000730407D42E6836F822303B4043EA090375
:100F600026F8223094F82420012A50D098E0A1617C
:100F7000607810B1012813D01AE02868B0F850301A
:100F8000184400EB0210B0F8042422F4F842A0F850
:100F90000424B0F8042442F40042A0F8042407E03A
:100FA0002868B0F85030184400EB0210A0F8041480
:100FB0006278286812B1012A11D018E0B0F85010F8
:100FC0000844217800EB0110B0F80C1421F4F8412A
:100FD000A0F80C14B0F80C1441F4004105E0B0F88E
:100FE00050201044227800EB0210A0F80C14217855
:100FF0002846FFF7F4FD700452D42278296831F8AE
:101000002200384040EA090021F8220048E06269E5
:1010100002446261E2690244E2612369226A9A42FF
:1010200003D31846111A216204E00AB11046216266
:1010300084F824106278296812B1012A22D029E0AC
:10104000B1F850201144227801EB021101F20C4159
:1010500048B13E280FD84208C30700D0521C0BEA03
:1010600082220A8016E00A8822F4F8420A800A885E
:1010700042F40042F5E74209C30600D1521E4EEA8F
:101080008222EEE7B1F850201144227801EB0211E0
:10109000A1F80C04628983B26169286803F0EAF957
:1010A00021782A6832F8210048F6BF73184080F092
:1010B000300048F28003184322F821000020BDE8E8
:1010C000F09F2DE9F04104460F0601F0070000EB08
:1010D000800104EBC1014FF001064FF0000503D57C
:1010E00081F82960283103E081F8695101F5B47174
:1010F00008700A61CB704A7802B1C881022B00D116
:101100000D7194F8A802012809D084F8A86220681B
:1011100002F058FC284684F8A852BDE8F08102206D
:10112000FBE770B50C4601F0070505EB850100EB08
:10113000C101C1E95F230022C1F8842181F869213E
:1011400081F8685101F5B4716207006802F05AFE37
:10115000002070BD70B504460D4601F007006168BF
:10116000884201D9012070BD29064FF000064FF0DA
:10117000010207D500EB800104EBC10181F82920B1
:10118000283107E005EB850104EBC10181F86961B5
:1011900001F5B4718A70087094F8A802012807D08C
:1011A00084F8A822206802F014FE680702D006E046
:1011B000022070BD04F52C71206802F0CCFD84F88B
:1011C000A862002070BD70B50C4601F0070505EB64
:1011D000850100EBC101C1E90F23012281F84C20F8
:1011E0008B6400234B6481F8292001F8285F620793
:1011F000006802F007FE002070BD1FB504460068BD
:1012000003F016F9000402D5204601F067FB2068C0
:1012100003F00EF940050CD5206830F8441F21F486
:1012200080610180204600F01FF90021204600F077
:1012300036F9206803F0FCF8400405D5206830F842
:10124000441F21F480410180206803F0F1F88004FC
:1012500005D5206830F8441F21F400510180206832
:1012600003F0E6F8C00414D5206830F8401F21F0E0
:1012700004010180206830F8401F21F0080101803E
:10128000204600F004F9206830F8441F21F4805112
:101290000180206803F0CCF800053ED522680020CC
:1012A000694632F8203021F81030401CC0B20828BE
:1012B000F7D332F8400F40F001001080206830F87A
:1012C000402F22F0010202802068B0F8442052052D
:1012D000FBD530F8442F22F480620280002023687E
:1012E00031F8102023F82020401CC0B20828F6D383
:1012F000206830F8401F41F008010180206830F874
:10130000441F21F400610180206830F8401F41F043
:1013100004010180204600F0F7F8206803F088F807
:10132000800508D5206830F8441F21F40071018041
:10133000204600F0B0F8206803F07AF8C00505D523
:10134000206830F8441F21F4807101801FBD000027
:101350002DE9F04186B0040004D094F8A9020025DC
:1013600020B108E0012006B0BDE8F08184F8A85261
:10137000204600F05BF8032084F8A902206802F000
:10138000E3FC04F11001142288466846FEF7FEFED5
:1013900094E80F0002F042FC0226D0BB0021206836
:1013A00003F060F8002001270FE000BF00EB800190
:1013B00004EBC10181F8297001F8280FC881CD70B4
:1013C0000D614D61401CC0B28D6161688142EDD8F4
:1013D000002011E000EB800104EBC10181F86951AC
:1013E00081F8680181F86B51C1F87851C1F87C51DE
:1013F000401CC0B2C1F8805161688142EAD8142211
:1014000041466846FEF7C2FE94E80F0002F093FCE6
:1014100010B184F8A962A5E784F8245084F8A97271
:10142000206802F086FC00209DE7000008B50068F7
:101430000B49884212D10B48C16941F40001C161D6
:10144000C069002200F40000009011461420FFF74C
:1014500075FBBDE808401420FFF762BB08BD000023
:10146000005C00400010024070B504468068012511
:10147000022801D0FEF72DFF2946D4F8E80202F039
:1014800078F8D4F8E802BDE8704002F034B8D0F83B
:10149000E80202F058B8D0F8E80202F05EB810B5E1
:1014A000044690F8A80201280BD0012084F8A80275
:1014B00084F82410206802F0D7FF002084F8A802E6
:1014C00010BD022010BDD0F8E82200F52C711046A6
:1014D00002F05BB810B5044690F8A802012810D0BD
:1014E000012084F8A802206802F092FF0121204622
:1014F000FFF774FB206802F01AFC002084F8A802B1
:1015000010BD022010BD000010B50446D0F8E8025E
:1015100002F07AF8A069002804D00348016841F07D
:101520000601016010BD000010ED00E02DE9F84358
:1015300005460078354CC00754D0E0690026C0004D
:1015400008D4E06940F08050E061E069012600F0D5
:10155000805000902E480168C90512D40168804669
:1015600041F480710160FEF7C9FF074605E000BF46
:10157000FEF7C4FFC01B642823D8D8F80000C005BC
:10158000F6D5206A10F4407021D0A98801F440718A
:1015900081421CD0206A1F49012220F440700A6059
:1015A00000220A602062C00711D0FEF7A7FF07469D
:1015B00041F2883808E000BFFEF7A0FFC11B41459B
:1015C00002D90320BDE8F883206A8007F4D5206A99
:1015D000696820F44070084320621EB1E06920F081
:1015E0008050E0612878800705D56068A96820F4FC
:1015F0004040084360602878C00605D56068696986
:1016000020F48000084360600020DBE70010024007
:1016100000700040400442422DE9F0470F460500AB
:1016200061D0434E306800F00700B84209D23068FC
:1016300020F0070038433060306800F00700B842FF
:1016400051D128683B4C810712D5400703D560680B
:1016500040F4E06060602878000703D5606840F4DB
:10166000605060606068A96820F0F0000843606026
:101670002878C00728D06868012810D0216802287F
:1016800010D0890700292EDA616821F00301014397
:101690006160FEF733FF804641F288390DE0216832
:1016A0008903EFE78901EDE7FEF728FFA0EB0801CA
:1016B000494502D90320BDE8F0876068696800F0F9
:1016C0000C00B0EB810FEFD1306800F00700B8429A
:1016D0000BD9306820F0070038433060306800F0E4
:1016E0000700B84201D00120E5E72878400705D57A
:1016F0006068E96820F4E0600843606028780007CB
:1017000006D56068296920F4605040EAC100606035
:1017100000F038F86168084AC1F30311515CC84011
:101720000649086006480068FFF7BCF90020C2E7D8
:1017300000200240001002400C4C00087C000020F9
:10174000740000200448054900684968044AC1F350
:101750000221515CC84070477C000020001002400C
:101760001C4C00080448054900684968044AC1F354
:10177000C221515CC84070477C000020001002402C
:101780001C4C000813A185B00FC98DE80F0015A0EF
:10179000154A00680490516801F00C00042804D038
:1017A000082804D0114805B070471148FBE7C1F381
:1017B0008343C9031DF8030009D5516804AAC1F386
:1017C0004041515C0A4A5043B0FBF1F0EBE7094954
:1017D0004843E8E702030405060708090A0B0C0D55
:1017E0000E0F1010010200000010024000127A00DB
:1017F000001BB70000093D002DE9F84F040070D030
:101800002078C04DC00749D06868C0F38100012826
:1018100007D06868C0F38100022809D16868C00356
:1018200006D52868800339D560680028E7D035E000
:101830006068B0F5803F0BD010B1B0F5A02F11D08B
:10184000286820F480302860286820F4802002E096
:10185000286840F480302860606890B1FEF74EFE42
:1018600006460AE0286840F480202860F0E700BFC0
:10187000FEF744FE801B642873D828688003F7D5E0
:101880000CE0FEF73BFE064605E000BFFEF736FE25
:10189000801B6428F0D828688003F7D420789A4EFB
:1018A00080074FF001094FF0000839D5686810F043
:1018B0000C0F07D06868C0F38100022809D168685E
:1018C000C00306D42868800714D52069012808D1F0
:1018D00010E02069B0B1C6F80090FEF70FFE074691
:1018E00005E00AE1FEF70AFEC01B0228C4D82868FA
:1018F0008007F7D52868616920F0F80040EAC10048
:1019000028600DE0C6F80080FEF7F8FD074604E009
:10191000FEF7F4FDC01B022823D828688007F7D4FF
:10192000207800072CD57948A169D9B1C0F800907A
:10193000FEF7E4FD074604E0FEF7E0FDC01B0228C9
:101940000FD8686A8007F7D571484FF4FA510068DC
:10195000B0FBF1F0009000BF0098411E0091FAD258
:101960000EE080E0C0F80080FEF7C8FD074604E006
:10197000FEF7C4FDC01B022875D8686A8007F7D43B
:101980002078400760D5E8690027C00008D4E869DE
:1019900040F08050E861E869012700F08050009035
:1019A0005C480168C90513D40168834641F480711D
:1019B0000160FEF7A3FD824606E000BFFEF79EFD34
:1019C000A0EB0A0064284ED8DBF80000C005F5D56E
:1019D000E06801280AD008B1052813D0286A20F051
:1019E00001002862286A20F0040002E0286A40F022
:1019F00001002862E06841F2883B98B1FEF77EFD65
:101A000082460BE0286A40F004002862EEE700BF3F
:101A1000FEF774FDA0EB0A0159455AD8286A8007E1
:101A2000F6D50CE0FEF76AFD824605E0FEF766FD9E
:101A3000A0EB0A0159454CD8286A8007F6D41FB19B
:101A4000E86920F08050E861E06988B36968C1F313
:101A50008101022944D00228C6F8608004D0FEF734
:101A60004DFD044638E034E0FEF748FD074604E04B
:101A7000FEF744FDC01B02282BD828688001F7D44C
:101A8000206AB0F5803F05D16868A16820F4003075
:101A900008436860D4E908010843696821F47411B7
:101AA00008436860C6F86090FEF728FD044606E02B
:101AB00025E000BFFEF722FD001B022809D8286898
:101AC0008001F7D51BE000BFFEF718FD001B0228C0
:101AD00002D90320BDE8F88F28688001F4D40EE015
:101AE0000128F7D06868226A00F48031914204D15D
:101AF000616A00F47010884201D00120EAE70020FA
:101B0000E8E7000000100240000042428004424228
:101B10007C0000200070004010B5401EB0F1807FB6
:101B200001D3012010BD4FF0E02460610F21601748
:101B300002F0C4FC0020A06107202061002010BD3D
:101B40007047704770B590F83C20012A2CD00124D2
:101B500080F83C40022280F83D2003685A689D6866
:101B600022F070060A6832435A60104B02689A42AB
:101B70000ED00F4B9A420BD0B2F1804F08D00D4BD4
:101B80009A4205D00C4B9A4202D00C4B9A4204D197
:101B9000496825F080031943916080F83D40002199
:101BA00080F83C10084670BD022070BD002C01403A
:101BB000003401400004004000080040000C0040D8
:101BC00010B5040003D094F83D0010B107E00120E7
:101BD00010BD002084F83C00204600F01FF80220D1
:101BE00084F83D00211D206801F03EF8012084F8B2
:101BF000460084F83E0084F83F0084F8400084F8F2
:101C0000410084F8420084F8430084F8440084F8DA
:101C1000450084F83D00002010BD000008B50068B4
:101C20000B49884212D10B48816941F400618161FE
:101C30008069002200F40060009011461920FEF730
:101C40007DFFBDE808401920FEF76ABF08BD00000F
:101C5000002C01400010024090F83D10012901D0F5
:101C600001207047022180F83D100168CA6842F0E7
:101C70000102CA6000680E4988420ED00D498842B0
:101C80000BD0B0F1804F08D00B49884205D00B49EA
:101C9000884202D00A49884204D1816801F00701D4
:101CA000062903D0016841F001010160002070475E
:101CB000002C0140003401400004004000080040B6
:101CC000000C004070B5044690F83C00012817D085
:101CD000012584F83C50022084F83D002068826889
:101CE00022F0770222F47F4282600868502830D0C8
:101CF0000DDC20284DD005DC98B310283BD148E0FE
:101D0000022070BD302844D0402834D139E060280A
:101D100028D0702806D0B0F5805F2CD0B0F5005FD9
:101D200029D10AE0CB68D1E90121206800F0E2FF67
:101D30002068816841F0770109E0CB68D1E9012191
:101D4000206800F0D7FF2068816841F480418160FD
:101D500011E0CA684968206800F0DEFF5021206861
:101D600007E016E0CA684968206800F0E6FF6021D5
:101D7000206800F0C9FF84F83D50002084F83C0042
:101D800070BDCA684968206800F0C6FF402120681D
:101D9000EFE7226801461046EBE7704770B504464E
:101DA000006801694FF00005C943890715D4C1686F
:101DB000C943890711D4E91E0161012020772068F9
:101DC00080698007204602D0FFF7E7FF04E000F0BB
:101DD00098F8204600F096F8257720680169C943F5
:101DE000490717D4C168C943490713D46FF00401E8
:101DF0000161022020772068806910F4407F20462E
:101E000002D0FFF7CAFF04E000F07BF8204600F0A4
:101E100079F8257720680169C943090716D4C16894
:101E2000C943090712D46FF008010161042020772B
:101E30002068C0698007204602D0FFF7AEFF04E0AB
:101E400000F05FF8204600F05DF825772068016912
:101E5000C943C90617D4C168C943C90613D46FF072
:101E600010010161082020772068C06910F4407FCC
:101E7000204602D0FFF791FF04E000F042F8204630
:101E800000F040F8257720680169C943C90708D1E7
:101E9000C168C943C90704D1891E0161204600F009
:101EA00033F820680169C943090609D4C168C943E8
:101EB000090605D46FF0800101612046FFF740FE5E
:101EC00020680169C943490609D4C168C943490664
:101ED00005D46FF040010161204600F045F820680C
:101EE0000169C94389060BD4C168C943890607D46F
:101EF0006FF0200101612046BDE87040FFF721BE70
:101F000070BD70477047000010B51349006809683C
:101F1000884220D1114C40F2E7316068884209D3F1
:101F20004FF6FF730E2204F108010D4800F086F809
:101F3000002000E0401C60602078C04310F0FF01EA
:101F40000848217005D00122BDE810408021FEF72D
:101F5000CFBA0022F8E710BDD80100200800002009
:101F60002002002000080140704770B5040004D032
:101F700094F83D00002510B106E0012070BD84F802
:101F80003C50204600F022F8242084F83D002068D0
:101F9000C16821F40051C160204600F0E1FE2068D4
:101FA000016921F4904101612068416921F02A0111
:101FB00041612068C16841F40051C160256420205E
:101FC00084F83D0084F83E00002070BD30B585B037
:101FD00000240094019402940394006814498842F8
:101FE00024D11448816941F480418161816901F4FF
:101FF00080410491816941F00401816180690E4D45
:1020000000F0040004904FF4007000900220019052
:102010000320039069462846FEF76EF92815CDE99E
:102020000004694628460294FEF766F905B030BD03
:102030000038014000100240000801402DE9F8433B
:10204000044690F83D001F4616460D4620284CD108
:10205000C5B1BEB194F83C00012846D0012084F8F7
:102060003C004FF00008C4F84080212084F83D0077
:10207000FEF744FAA6848146E684A068B0F5805F46
:1020800003D004E00120BDE8F883206928B12E4682
:102090005FF0000584F83C800EE00026FAE780211E
:1020A000204600F0B9FEA0B9AEB116F8010B2168C8
:1020B0004860E08C401EE084E08C4B464FF000020C
:1020C00000970028EBD14FF04001204600F0A4FE1D
:1020D00030B10320D7E735F8020BC0F30800E6E77C
:1020E000202084F83D000020CDE70220CBE7FEE76A
:1020F00001684A69D24352050FD46FF480624A6185
:10210000002140F8301F202242738173026942F09F
:102110000402026101730120704700207047000033
:102120002DE9F84F0446006889460B9D01689846E2
:10213000174641F4806101602068016841F48071B4
:10214000016000954FF0011B0022594620460A9B72
:1021500000F0DEF84FF4007A40B120680068C00556
:1021600001D5C4F840A00320BDE8F88F216809F02C
:10217000FE0008612B46284920460A9A00F0FCF828
:10218000F0BB20684169806900902A4620460A9980
:1021900000F070F940B1206C04283AD12068016841
:1021A00041F40071016034E0FEB2B8F1010F09D0D2
:1021B0002168380A08612A4620460A9900F05AF92F
:1021C0000028E8D1206806612A4620460A9900F0D6
:1021D00051F90028DFD12068016841F48071016065
:1021E00000950022594620460A9B00F091F80028ED
:1021F000B3D1216809F0FF0040F00100086100E060
:1022000007E02B46044920460A9A00F0B5F800285A
:10221000AAD00120A8E70000020001002DE9F84340
:10222000044600680D46DDE90897016898461646A1
:1022300041F4807101604B4600224FF001112046AD
:10224000009700F065F848B120680068C00502D525
:102250004FF4007020640320BDE8F883216805F086
:10226000FE0008613B464A461549204600F084F8C6
:1022700088B920684169806900903A4649462046FD
:1022800000F0F8F848B1206C042804D120680168F7
:1022900041F4007101600120DEE7F5B2B8F1010FF1
:1022A00009D02168300A08613A464946204600F0C4
:1022B000E1F80028E7D1206805610020CCE70000A4
:1022C0000200010070B516460D4604460DE020469A
:1022D000FFF70EFF08B1012070BD681C05D0FEF7A6
:1022E0000DF9801BA84207D835B120684069C0436A
:1022F0004007ECD4002070BD002044F8300F2021AE
:102300006173A073216941F0200121612073E2E72C
:102310002DE9F0471E4690460D460446C1F3074797
:10232000DDF8209008E0701C06D0FEF7E7F8A0EB7F
:102330000900B0420FD876B12068012F18D080690B
:1023400025EA00000004000C14D000214145EAD029
:102350000020BDE8F087002044F8300F2021617391
:10236000A073216941F02001216120730120F0E771
:102370004069E5E70121E9E72DE9F0479A469146F2
:102380000E46044600254FF02008C1F3074725E01C
:1023900020684069C043400514D42068016841F4B6
:1023A0000071016021686FF480604861256384F8E2
:1023B0003D8084F83E50206C40F00400206484F896
:1023C0003C501FE0B9F1FF3F08D0FEF797F8A0EBB3
:1023D0000A0149450CD8B9F1000F09D02068012F36
:1023E00013D0806926EA00000004000C0BD0CFE770
:1023F00044F8305F84F80D80A573206940F0200018
:10240000206125730120BDE8F0874069EAE72DE9E6
:10241000F041002590460E460446202717E040690B
:10242000C043C0060CD454F8301B6FF01000486154
:1024300044F810596777A577206A2062257717E05E
:10244000FEF75CF8A0EB0800B04208D83EB1206867
:102450004169C9434906E2D40020BDE8F08144F84F
:10246000305F6773A573206940F0200020612573F9
:102470000120F2E770B516460D4604460DE02046F1
:10248000FFF736FE08B1012070BD681C05D0FEF7CD
:1024900035F8801BA84207D835B120684069C04391
:1024A0000006ECD4002070BD002044F8300F20213D
:1024B0006173A073216941F0200121612073E2E77B
:1024C000F0B500230A24302537261F4611E000BF4F
:1024D000B4EB107F02D905EB107C01E006EB107C19
:1024E00001F813C001EB430C00015B1C8CF8017078
:1024F000DBB29342ECD3F0BD7CB514460D460646E4
:102500006A460621432000F073F800280BD1BDF87D
:10251000001049BA3180BDF8021049BA2980BDF8CF
:10252000041049BA21807CBD10B51E48FDF7ECFFB0
:1025300080216B2000F0AAF800216B2000F0A6F8A3
:10254000032000F06EF8002000F066F8322000F062
:1025500085F80021382000F099F800216A2000F069
:1025600095F80021232000F091F88021372000F019
:102570008DF8752000F022F8044601460AA001F00B
:102580008DFF682C01D0012010BD01216B2000F0CF
:102590007DF800216C2000F079F8322000F05EF820
:1025A000002010BD840100200D0A4D5055363035F5
:1025B000303A30782532780D0A0000001FB500212E
:1025C0008DF80C1040F6FF73012203A98DE80E0070
:1025D00013460246D1210548FEF75AF86420FDF75C
:1025E00079FE9DF80C0004B010BD000084010020AD
:1025F0000EB540F6FF730092CDE9011302460123A8
:10260000D1210448FEF744F86420FDF763FE002062
:102610000EBD000084010020C006010E1C2000F049
:1026200035B8C006010E1B2000F030B8BC2801D31D
:10263000012110E0622801D302210CE02A2801D3F5
:10264000032108E0142801D3042104E00A2801D35F
:10265000052100E006211A2000F018B810B5044644
:102660004FF47A70844201D9044602E0042C00D26F
:102670000424B0FBF4F0401EC1B2192000F006F8AB
:102680006008BDE81040FFF7D1BF00001FB540F65D
:10269000FF738DF80C10012203A98DE80E0013467C
:1026A0000246D0210448FEF71BF96420FDF712FE14
:1026B00004B0002010BD0000840100202DE9F0438B
:1026C00085B00024384800940194029403948169F1
:1026D00041F080018161816901F08001049181698B
:1026E00041F004018161816901F004010491816973
:1026F00041F480718161816901F480710491816983
:1027000041F0080181618069DFF8A08000F00800D5
:10271000049000224FF4B8514046FDF7E9FE244FE3
:10272000002280213846FDF7E3FE01224FF42051BC
:102730004046FDF7DDFEDFF87C900122FF21484690
:10274000FDF7D6FE00224FF460614846FDF7D0FE4B
:102750004FF4F85001250226CDE90005CDE90246E7
:1027600069464046FDF7C8FD8020CDE90005CDE96A
:10277000024669463846FDF7BFFD6803CDE900050E
:10278000CDE9024669464046FDF7B6FD40F6FF60DA
:10279000CDE90005CDE9024669464846FDF7ACFDA6
:1027A00005B0BDE8F083000000100240001C0140AD
:1027B00000080140002001400D4810B50B490160A0
:1027C0000C49416000214FF480428160C0E903124E
:1027D00041618161C1610162FDF796FE002803D06D
:1027E000BDE81040FDF775BD10BD00000058004069
:1027F00084010020801A060010B586B00024174816
:102800000094019402940394049413490594016084
:102810004721C0E9011440F2E731C0E903144461E3
:102820008461FFF7CDF908B1FDF753FD4FF48050F7
:10283000009069460948FFF745FA08B1FDF749FDE0
:10284000049404A905480594FFF77CF9002801D0F9
:10285000FDF73FFD06B010BD002C0140D80100205F
:102860000C4810B50A4901604FF4E1314160002184
:1028700081600C22C160C0E904128161C161FFF76F
:1028800074FB002803D0BDE81040FDF722BD10BD49
:10289000003801402002002010B500220B490C48EE
:1028A00000F004FD08B1FDF714FD0A49084800F0E6
:1028B000D1FE08B1FDF70DFD054800F021FF00280D
:1028C00003D0BDE81040FDF704BD10BD200000207E
:1028D0006402002084000020FEE770472DE9F84FD5
:1028E000044640F68F7B48F60F7A4FF002094FF40A
:1028F000806874E1B0F8441011F00F063AD030F857
:10290000267039047DD530F8261001EA0B0141F01C
:10291000800120F8261006EB860004EBC00595F830
:10292000740105F5B47500286CD0E87802286AD0E7
:102930002878226832F8201048F68F73194048F240
:10294000C003194322F820102878D4F800C03CF8BE
:102950002010BCF8502049047ED509EBC0001118A6
:1029600008EB41003CF800008005800D009074D019
:102970002A89D8E0C9062DD4018801EA0A0141F468
:1029800000410180216804F12805B1F850202B781E
:1029900009EBC300024408EB4200085AC0F30900E7
:1029A0006064E16B0844E06300212046FEF717F9FC
:1029B00094F8240000289CD0A869002899D194F8A4
:1029C0002400216840F08000A1F84C00002084F829
:1029D000240004E1018804F5B4750A0521D5B0F896
:1029E00050202B78062101EBC3010A4408EB420179
:1029F000405A04F52C71C0F30903EB61EA882068A2
:102A000002E0ACE068E07AE001F016FD2168088899
:102A100000EA0B0040F0800008802046FEF753FDDE
:102A2000DDE00904D5D5018801EA0B0141F0800100
:102A300001802068B0F850202B78062101EBC301FB
:102A40000A4408EB4201405A83059B0DEB6110D00C
:102A5000696971B1EA8801E058E056E0206801F048
:102A6000EBFCE96968690844686100212046FEF7CB
:102A7000BFF82068018809052DD4B0F8501008442B
:102A8000296900F20C4051B13E2910D84A08C90703
:102A900000D0521C4FF6FF7101EA82210FE001883D
:102AA00021F4F8410180018841F4004107E04A091E
:102AB000C90600D1521E4FF4004141EA8221018033
:102AC000206801884BF68F72114081F4405148F222
:102AD00080021143018082E0D4F800C0BCF850109D
:102AE0002A78062000EBC200014408EB41003CF8C4
:102AF00000008005800D00901AD0EA8813E03A4665
:102B000029462046FEF7D2F8009011E0062101EB9D
:102B1000C000111808EB41003CF800008005800D52
:102B2000009005D06A8903466046696901F084FC1B
:102B3000E96900980844E861696900980844686197
:102B4000A86918B129690098814204D929782046DA
:102B5000FEF74EF803E02946206801F053F93806E5
:102B60003DD506EB860004EBC001206830F8262036
:102B700002EA0A0242F4004220F8262091F82B00D3
:102B80002831032804D018B1022824D1F80522D412
:102B90002368B3F850200D7809EBC500024408EB18
:102BA0004200185A8A69C0F3090082420CD9121AED
:102BB0008A610BD04A6902444A61CA691044C861FB
:102BC000206801F01FF90AE000208861E9B2204680
:102BD000FEF705F803E03A462046FEF7DAF82068EB
:102BE000B0F8441009043FF585AE0020BDE8F88F29
:102BF00070477047FDF73CBF30B595B02821684657
:102C0000FDF7DDFA14210AA8FDF7D9FA18210FA85B
:102C1000FDF7D5FA01210804CDE900100024029443
:102C200002250491CDE90750000109906846FEF79E
:102C3000E3FD0F20CDE90A056802CDE90C40022131
:102C40000AA80E94FEF7E8FC102014940F900FA829
:102C5000FEF76CFC15B030BD704700000148FFF76F
:102C60009DB80000D8010020F0B502681C4B1D4D36
:102C70001D4E1E4F1E4C4FF0804C984209D0A04272
:102C800007D0604505D0A84203D0B04201D0B84279
:102C900004D122F0700E4A6842EA0E02984209D02E
:102CA000A04207D0604505D0A84203D0B04201D071
:102CB000B84203D122F44075CA682A434D6922F014
:102CC00080022A4302608A68C2620A68826298426D
:102CD00001D0A04201D10969016301214161F0BD28
:102CE000002C01400004004000080040000C00409F
:102CF0000034014010B5846842EA032224F47F4482
:102D00000A432243826010BD826822F070020A43A7
:102D100042F007018160704710B5036A046A24F02D
:102D200001040462846924F0F00444EA021423F0EC
:102D30000A020A438461026210BD10B5036A23F0DF
:102D4000100303628369046A23F4704343EA023286
:102D500024F0A00343EA01118261016210BD00006A
:102D600070B5044600680169E26821F440511143DE
:102D700001612169A0680843616908432168CA6844
:102D800041F20C639A430243CA6020684169A26918
:102D900021F44071114341611E492068884202D1EB
:102DA000FEF7E0FC01E0FEF7CDFC00EBC00101EB1B
:102DB0000012606864218000B2FBF0F3B3FBF1F312
:102DC0006FF018067343B2FBF0F5B2FBF0F605EBBB
:102DD0008305322303EB0515B5FBF1F5B6FBF1F6E0
:102DE00005F0F00505EB0615B2FBF0F6B2FBF0F0CE
:102DF000B0FBF1F06FF01802504306EB800003EBDC
:102E00000010B0FBF1F0216800F00F00284488604A
:102E100070BD0000003801402DE9F041984617468A
:102E20000E460446069D1DE0681C1BD02DB1FDF723
:102E300065FBA0EB0800A84214D92068C16821F402
:102E4000D071C1602068416921F0010141612020F9
:102E500084F83D0084F83E00002084F83C00032004
:102E6000BDE8F0812068006836EA000004D0002048
:102E7000B842D9D00020F3E70120F9E710B5D0F827
:102E8000B42252689047002010BD134610B50A4680
:102E9000002100F027FB002010BD134610B50A46A4
:102EA000002100F0BAFB002010BD10B504468021BF
:102EB00000F098FB2046BDE81040002100F092BBD6
:102EC00010B505210023C0F894121A46194600F0E7
:102ED00009FB002010BD10B50223C261C0F8943276
:102EE000026213460A46002100F097FB002010BD45
:102EF00010B504210023C0F894121A46194600F0B8
:102F00008CFB002010BD000010B50A46024903A04A
:102F100000F0E2F8004810BD28080020484944208D
:102F2000436F6E6669670000122008800048704792
:102F30004000002010B50A46024903A000F0CCF87A
:102F4000004810BD2808002048494420496E746597
:102F500072666163650000000420088000487047C5
:102F60003C00002010B50A46024903A000F0B4F866
:102F7000004810BD2808002053544D6963726F65E6
:102F80006C656374726F6E696373000010B50A46F6
:102F9000024903A000F0A0F8004810BD2808002056
:102FA00053544D33322048756D616E20696E7465DF
:102FB000726661636500000010B51A2008800A4837
:102FC0000168001D0468001D0068081809D0082267
:102FD0000649FFF775FA0549042210312046FFF72C
:102FE0006FFA0248801E10BDE8F7FF1F5600002050
:102FF000F8B504460020ADF8000048880D46010AE7
:10300000082948D2DFE801F04704091747473C4543
:10301000D4F8B012207C0A6819E0207C022600282F
:10302000D4F8B40205D0C16A6846884701464670A4
:103030003EE0816AF8E7C0B206282CD2DFE800F053
:10304000030A1014181CD4F8B002426805E069465F
:1030500090471CE0D4F8B0028268E2B1207CF6E729
:10306000D4F8B002C268F8E7D4F8B0020269F4E715
:10307000D4F8B0024269F0E7D4F8B0028269ECE714
:10308000207C40B9D4F8B402416B684688470146B9
:103090000EE0207C20B129462046FFF706FFF8BD50
:1030A000D4F8B402016B684688470146072048708F
:1030B000BDF8000048B1EA8852B1824200D9024608
:1030C000ADF800202046FFF706FFE8880028E6D18B
:1030D0002046FFF70DFFF8BD70B5002300281ED075
:1030E0000446002502E06D1CEDB2641C2678002E1B
:1030F000F9D1022404EB450414801278CA545B1CF5
:103100000322CA5400245B1C06E0CA545B1CDAB2DA
:103110008C54521CD3B2401C0278002AF5D170BDE9
:1031200001004FF0000004D0012901D0022901D094
:103130000220704701207047D0F8B80200210173C7
:103140000846704770B50446812100F0CDF800258F
:10315000E562D4F8B80218B100F02FFCC4F8B852F8
:10316000002070BD0A210180004870473401002012
:103170002221018000487047BC00002022210180EC
:1031800000487047E000002022210180004870477D
:103190000401002010B5044604230322812100F01D
:1031A00095F90120E062102000F008FCC4F8B80294
:1031B00018B100210173084610BD022010BD10B5E2
:1031C000134690F89C42D0F8B822032C07D1147B08
:1031D0002CB9012414730A46812100F01EFA002044
:1031E00010BD000038B503460022D0F8B802ADF893
:1031F000002014460A7812F0600216D0202A4AD124
:103200004A78022A0ED0032A06D00A2A06D00B2AB0
:1032100041D18978016042E001222BE04988090A06
:1032200041603CE00122011D25E04A7832B1062AC6
:103230000BD00A2A23D00B2A2DD128E093F89C0228
:10324000032828D10222694615E048882222B2EBE1
:10325000102F05D1CA883F2A00D93F22124809E021
:103260002122B2EB102F16D10F48CA881838092A2C
:1032700000D9092201461846FFF72DFE0FE093F80A
:103280009C22032A07D1012200F10801F3E793F8F9
:103290009C22032A05D01846FFF707FE0224204689
:1032A00038BD89788160FAE74001002010B580B10F
:1032B000D0F8B43213B10023C0F8B43209B1C0F869
:1032C000B012012180F89C12027000F0BBF80020BF
:1032D00010BD022010BD10B5D0F8C002FDF7B8FC3B
:1032E000BDE81040FFF71CBF10B5D0F8C002FDF7D5
:1032F00089FCBDE81040FFF713BF2DE9F0411746E8
:10330000044651B1D4F8B40242691AB194F89C024F
:10331000032851D00220BDE8F081D4F89432002572
:1033200004F11400022B03D0042B3AD0C3B33CE0C9
:10333000D0E903639E4207D9F11AC1608AB23946C7
:103340002046FFF7AAFD12E08068B0FBF3F103FB13
:10335000110199B9984211D3D4F8981288420DD22C
:10336000002211462046FFF798FDC4F8985200232A
:103370001A461946204600F0B5F816E0D4F8B40213
:10338000C16829B194F89C02032801D120468847DE
:103390008021204600F026F92046FFF791FD04E049
:1033A000FFE78021204600F01DF994F8A0020128D3
:1033B00004D184F8A05201E0204690470020AAE7FB
:1033C00070B51546044649B1D4F8B40282691AB101
:1033D00094F89C02032830D0022070BDD4F89412D7
:1033E00004F5AA70032902D005291ED027E0D0E9F0
:1033F00003218A420BD9531AC3600846834200D383
:1034000003469AB229462046FFF73FFD17E0D4F85D
:10341000B402016929B194F89C02032801D1204625
:1034200088472046FFF764FD09E000200146C4F804
:103430009402204600F0D6F801E020469047002094
:1034400070BD000010B517490446C1F8E802C0F885
:10345000C0121548086008204860022088600020DB
:103460008861C86108620846FDF772FF08B1FCF781
:1034700030FF0022D4F8C0021823114604F530743E
:10348000FDF78EFB5823002280212068FDF788FB82
:103490004FF48073002281212068FDF781FB00201A
:1034A00010BD00003C050020005C00400A0601F051
:1034B0007F01D0F8C00201EB810100EBC10002D511
:1034C00090F82A00704790F86A01704710B51C46C2
:1034D0001346D0F8C0022246FDF7F3FDBDE81040C8
:1034E000FFF71EBE10B5D0F8C002FDF71AFEBDE80A
:1034F0001040FFF715BE70B5002204464023114668
:10350000FFF7E4FF40260125C4F86461334600223A
:1035100080212046C4F85851FFF7D8FF6662A561A4
:1035200084F89C520020C4F894026060C4F8A4029D
:10353000D4F8B80228B1D4F8B40200214268204679
:103540009047002070BD90F89C12042903D190F898
:103550009D1280F89C120020704710B590F89C12C4
:10356000032904D1D0F8B412C96901B188470020F9
:1035700010BD01740020704710B5D0F8C002FDF7EF
:103580008EFFBDE81040FFF7CBBD70B5044600F5D7
:103590002A70054600F04AF80120C4F89402B4F8F5
:1035A000AE02C4F8980294F8A80210F01F010AD0E5
:1035B00001290DD0022910D000F08001204600F032
:1035C00011F8002070BD2946204600F09EF8F8E76B
:1035D0002946204600F0CAF9F3E72946204600F0C4
:1035E0001DF9EEE710B5D0F8C002FDF7B3FDBDE858
:1035F0001040FFF795BD10B5D0F8C002FDF76AFF87
:10360000BDE81040FFF78CBD90F89C1280F89D1229
:10361000042180F89C120020704710B5D0F8C00239
:10362000FDF7D1FDBDE81040FFF77ABD0A780270C2
:103630004A7842708A78CB7802EB032242800A797A
:103640004B7902EB032282808A79C97902EB01214E
:10365000C18070470246002011B1C2F8B412704711
:103660000220704710B5D0F8B42202241AB11268B3
:10367000904700B90024204610BD000070B50E46EA
:103680001E4D897804462970012931D894F89C028E
:1036900002280BD003280FD031462046FFF705FC47
:1036A00029782046BDE87040FFF7E8BBD9B1032078
:1036B000616084F89C0209E071B16068884212D0B0
:1036C000C1B22046FFF7DAFB297861602046FFF798
:1036D000C9FF02280CD006E0022084F89C02204694
:1036E0006160FFF7CBFB2046BDE87040FFF700BCF0
:1036F00031462046BDE87040FFF7D7BB8000002070
:1037000010B5FFF778FF002010BD2DE9F0410A78D1
:10371000002612F0600208D0202A01D0402A70D181
:10372000D0F8B422926890476DE04B7800220125D2
:103730000A2B66D2DFE803F0405D65576508056532
:103740002C29FFF755FC5EE004468888D8B9C88864
:10375000C8B94888802816D200F07F0794F89C02E8
:10376000032810D084F89E7239462046FFF704FFE4
:103770002046FFF7BDFB1FB1022084F89C0242E007
:1037800084F89C523FE020463BE0FFF777FF3AE0A9
:10379000CB88012B35D190F89C32012B04D0022B21
:1037A00002D0032B2DD104E08260012200F1080138
:1037B00016E00122011D13E090F89C22012A03D09B
:1037C000022A01D0032A1CD1CA88022A19D1C56055
:1037D000D0F8A41209B10321C160022200F10C014A
:1037E000FFF779FB0FE0498801290CD1C0F8A452FA
:1037F00011E090F89C32012B08D0022B06D0032B4D
:1038000004D0FFF752FB3046BDE8F081498801291A
:10381000F9D1C0F8A422FFF76BFBF4E72DE9F041E2
:103820000A46044610780027097910F060030AD090
:10383000202B01D0402B50D1D4F8B402114683681C
:10384000204698478FE0C0F34110012806D05078F9
:10385000D0B301282AD003283FD107E0D4F8B4021E
:10386000114683682046BDE8F041184794F89C0251
:10387000022802D0032872D10AE071B380296ED0E9
:103880002046FFF7AFFE80212046FFF7ABFE6AE03F
:10389000508838B931B1802904D0D08810B9204679
:1038A000FFF7A0FE2046FFF723FB5CE094F89C02A4
:1038B0000228E2D0032852D1508898BB4806F1D0A4
:1038C0002046FFF708FDEDE7FFE794F89C0200268D
:1038D000022803D0032842D112E040E009B1802938
:1038E0003DD1080601F07F0000EB800004EB800171
:1038F00001D5143101E001F5AA7102220E602AE01F
:10390000080601F00F0000EB800004EB80000AD5F0
:10391000806920B301F07F0000EB800004EB80059C
:1039200014350BE01FE0D0F85801C0B101F07F0062
:1039300000EB800004EB800505F5AA7541B18029F4
:1039400006D02046FFF7B2FD10B10120286000E04C
:103950002E60022229462046FFF7BDFA03E01146F9
:103960002046FFF7A2FA3846BDE8F08170B505465B
:1039700008780C4610F0600003D0202801D04028C1
:1039800016D195F89C02012803D0022801D0032803
:103990000ED1207901280BD8D5F8B40282682846C8
:1039A0009047E188014306D12846FFF7A1FA02E0DB
:1039B0002846FFF77AFA002070BD7047004870472C
:1039C000280500202DE9F0470C78002630F8243037
:1039D00048F68F121340CA78002A7DD0012A7CD085
:1039E000022A02D0032A7FD0012648F28002134324
:1039F00020F824300D7830F8254048F68F731C40AD
:103A00002C43144320F825400D7B48F2C00C48F6A7
:103A1000BF744CF280074BF68F79EDB391F80080BC
:103A2000C24630F8285048F280181D4045EA080583
:103A300020F82A50B0F8505091F80080054405EB6A
:103A40000815B1F8088028F00108A5F80084B0F83E
:103A5000505091F80080054405EB0815B1F80A8034
:103A600028F00108A5F808844D78002D0D7830F86D
:103A700025804FEA48487DD0B8F1000F07DA30F8CA
:103A8000258008EA030848EA070820F825800F780F
:103A900030F827506D0600E02CE006D530F82750AE
:103AA0001D4045EA0C0520F82750CB780D78012BF6
:103AB00030F8253003EA040301D083F020031343D8
:103AC00020F825300B7830F8231001EA0901114362
:103AD00020F82310304602E003E008E004E0BDE8EF
:103AE000F08743F4007380E743F4C0637DE743F459
:103AF00080637AE74D782DB3B0F850500F780544C5
:103B000005EB0715CF8827F00107A5F800740F789B
:103B100030F827506D0606D530F827501D4045EA8D
:103B20000C0520F82750CB78012B06D00B7830F805
:103B30002310214081F02001C9E70B7830F82310D1
:103B40002140C4E7B0F850400D78044404EB05145C
:103B5000CD8825F00105A4F80854B0F850400D7840
:103B6000044404EB05140D6904F20C4475B13E2DB8
:103B700014D800E030E04FEA550CED0701D00CF10D
:103B8000010C4FF6FF7505EA8C2511E0258825F418
:103B9000F8452580258845F4004509E04FEA551C85
:103BA000ED0601D1ACF1010C4FF4004545EA8C253E
:103BB00025800D7830F82540640405D530F825407F
:103BC0001C403C4320F825400B7830F8231001EAD4
:103BD000090181F440517AE7B8F1000F07DA30F8B3
:103BE000258008EA030848EA070820F825800F78AE
:103BF00030F827506D0606D530F827501D4045EAAD
:103C00000C0520F827500D7830F8253003EA090319
:103C100083F44053134320F825308EE7002070478B
:103C20002DE9F04391F80C804F780A7848F6BF7C74
:103C30004BF68F7948F2800348F2C0054CF28006BB
:103C400048F68F74B8F1000F28D0002F30F822709A
:103C50004FEA474748D0002F05DA30F82270274056
:103C6000374320F822700A7830F822707F0605D595
:103C700030F8227027402F4320F822700D7830F85A
:103C800025202240324320F825200C7830F82420CB
:103C900002EA0C021A4320F824201AE07FB130F81F
:103CA0002260760605D530F8226026402E4320F8A3
:103CB00022600A7830F8221001EA0C010EE030F898
:103CC00022506D0405D530F822502540354320F8A8
:103CD00022500A7830F8221001EA0901194320F82D
:103CE00022100020BDE8F083002F05DA30F82270A2
:103CF0002740374320F822700A7830F82260760691
:103D000005D530F8226026402E4320F822600E7838
:103D100030F8262022402A4320F826200C7830F85C
:103D2000242002EA09021A4320F82420C1E70020D7
:103D3000704700207047012120F8401F00210180BA
:103D4000818001820846704730F8401F21F43F41CE
:103D50000180002070470020704730B50A7BB2BB5D
:103D60004A7848F68F7548F28004C2B10B7830F873
:103D70002320520607D530F823202A4048F2C005F8
:103D80002A4320F82320CA78012A20D00A7830F864
:103D9000221048F6BF73194081F0200114E00A7820
:103DA00030F822305B0407D530F822302B404CF23B
:103DB00080052B4320F822300A7830F822104BF689
:103DC0008F73194081F44051214320F822100020C4
:103DD00030BD10B54A780978002A48F2800330F8DF
:103DE000212005D048F6BF74224082F0100204E082
:103DF0004BF68F74224082F480521A4320F821201F
:103E0000002010BD2DE9F0470E464B78097B044693
:103E10004FF0000948F68F7248F2800A4FF6FF779C
:103E20004FF40048012B09D000296ED0F078022809
:103E30006CD001286BD00120BDE8F087B5693069EE
:103E4000854200D90546C9B1F17848F280130229AC
:103E500023D0317834F821001040184324F8210091
:103E6000306A401B3062307834F82010490671788F
:103E70007ED500297DD001297CD03FE1ABB2F2880C
:103E80002046716900F0F6FAB4F850003178204409
:103E900000EB0110A0F80454EAE0316A81426AD9CB
:103EA000317834F821001040184324F82100306A9A
:103EB000401B3062307834F82010490671786CD598
:103EC00011B1012924D02AE0B4F85010214401EBAB
:103ED000001000F20C404DB13E2D0FD86908EA07E2
:103EE00000D0491C07EA8121018018E0018821F4F3
:103EF000F8410180018841F40041F5E76909EA06CB
:103F000000D1491E48EA8121EEE79CE1BCE126E2AE
:103F1000B4F85020111901EB0010A0F80C5472896C
:103F2000ABB22046716900F0A5FA7069284470614F
:103F30003169306A884202D9401B306202E005468E
:103F4000C6F82090707800287CD1B4F85000317801
:103F5000204400EB011000F204406DB13E2D13D857
:103F60006908EA0700D0491C07EA8121018012E0B4
:103F700001E19BE0BBE084E0018821F4F84101808D
:103F8000018841F40041F1E76909EA0600D1491EC0
:103F900048EA8121EAE7328965E011B1012921D09F
:103FA00027E0B4F85010214401EB001000F2044067
:103FB0004DB13E2D0FD86908EA0700D0491C07EA29
:103FC0008121018015E0018821F4F84101800188F8
:103FD00041F40041F5E76909EA0600D1491E48EAC3
:103FE0008121EEE7B4F85010214401EB0010A0F855
:103FF00004543289ABB22046716900F03BFA706913
:10400000284470613169306A884202D9401B3062AD
:1040100002E00546C6F82090707800287ED1B4F8FA
:1040200050003178204400EB011000F20C4055B1F3
:104030003E2D10D86908EA0700D0491C07EA812103
:1040400001800FE072E0018821F4F84101800188CD
:1040500041F40041F4E76909EA0600D1491E48EA43
:104060008121EDE77289ABB22046716900F002FA56
:10407000317834F8210048F6BF72104080F03000EB
:10408000C0E1327834F8220048F68F63184040EAE5
:104090000A0024F82200B4F850003278204400EBE3
:1040A00002108BB2A0F804343289DDE7B4F8501066
:1040B000214401EB001000F20C404DB13E2D0FD811
:1040C0006908EA0700D0491C07EA8121018015E050
:1040D000018821F4F8410180018841F40041F5E7AD
:1040E0006909EA0600D1491E48EA8121EEE7B4F8E1
:1040F0005020111901EB0010A0F80C547289ABB2DA
:104100002046716900F0B6F9706928447061316920
:10411000306A884203D9401B306203E06EE00546F6
:10412000C6F82090002DA3D0707858B101287FF4F4
:104130001EAFB4F850003178204400EB0110A0F815
:10414000045428E7B4F850003178204400EB011102
:1041500001F204413E2D06D86808EA0700D0401C51
:1041600007EA802005E06809EA0600D1401E48EA17
:10417000802008800FE711B1012921D027E0B4F891
:104180005010214401EB001000F204404DB13E2DCF
:104190000FD86908EA0700D0491C07EA812101808D
:1041A00015E0018821F4F8410180018841F40041C3
:1041B000F5E76909EA0600D1491E48EA8121EEE7E0
:1041C000B4F85010214401EB0010A0F804543289D7
:1041D000ABB22046716900F04DF9706928447061F6
:1041E0003169306A884202D9401B306202E00546DC
:1041F000C6F82090002D96D0707858B101287FF431
:1042000020AFB4F850100819317800EB0110A0F875
:104210000C5427E7B4F850003178204400EB01112A
:1042200001F20C413E2D06D86808EA0700D0401C78
:1042300007EA802005E06809EA0600D1401E48EA46
:10424000802008800EE7B1693069814202D9091ADD
:10425000B161B5E00846C6F81890B1E0088820F4CE
:10426000F8400880088840F400400BE03E2875D8EC
:104270004208C00700D0521C07EA822002E000BFBB
:1042800048EA82200880B5E093B9B4F8500031784C
:10429000204400EB0110316900F2044069B13E296D
:1042A00013D84B08C90700D05B1C07EA83210180A3
:1042B000707888B1012832D03AE0018821F4F841C1
:1042C0000180018841F40041F1E74B09C90600D1A2
:1042D0005B1E48EA8321EAE7B4F8500031782044B5
:1042E00000EB0110316900F20C4049B13E290FD8B2
:1042F0004B08C90700D05B1C07EA8321018017E047
:10430000018821F4F8410180018841F40041F5E77A
:104310004B09C90600D15B1E48EA8321EEE7B4F8D9
:1043200050100819317800EB0110318AA0F80C14F4
:10433000F069A8B3317834F82100430401D543066D
:1043400003D444F24003184254D134F82100104001
:1043500048F2C002104324F821004BE03CE0B16970
:104360003069814202D9091AB16102E00846C6F8F3
:1043700018908BB9B4F850103278214401EB021137
:1043800001F2044168B13E2813D84208C30700D0A7
:10439000521C07EA82220A80717889B1012921D052
:1043A00028E00A8822F4F8420A800A8842F400428F
:1043B000F1E74209C30600D1521E48EA8222EAE729
:1043C000B4F850103278214401EB021101F20C4193
:1043D00000287FF44BAF41E74209C0067FF450AF9D
:1043E000521E4DE7B4F850201119327801EB02113A
:1043F000A1F80C04317834F821004BF68F7210408C
:1044000080F4405040EA0A0024F82100002013E51F
:104410000021A0F844104FF43F41A0F840100020C4
:10442000704700000148FCF7E8BE00003C05002092
:10443000B0F844007047000010B500EB42005C0883
:1044400000F5806009D000BF30F8042B01F8012B83
:10445000120A01F8012B641EF6D1DA0701D0008898
:10446000087010BD0020704711B98021A0F84C10D1
:104470000020704710B55B1C00EB42005B0800F5A4
:10448000806009D011F8012B11F8014B42EA042297
:1044900020F8042B5B1EF5D110BDFEE70FB4054BD1
:1044A00010B503A9044A029800F028F810BC5DF882
:1044B00014FB000071490008800100200907090E63
:1044C000002804DB00F1E02080F80014704700F0C1
:1044D0000F0000F1E02080F8141D704702E008C8CA
:1044E000121F08C1002AFAD170477047002001E06E
:1044F00001C1121F002AFBD1704700002DE9FF4FB8
:104500008DB00F460546002606E025280BD0DDE9D4
:104510000F1290476D1C761C28780028F5D111B039
:104520003046BDE8F08F0024A246A1460122E949A9
:1045300000E0044315F8013F203B02FA03F0084273
:10454000F7D128782A2810D06FF02F022878A0F110
:104550003001092914D80AEB8A0102EB410144F029
:10456000020400EB010A6D1CF0E701CF5FEA000ACC
:1045700003D544F40054CAF1000A44F002046D1C4F
:1045800028782E2817D115F8010F44F004042A28A2
:104590000ED06FF02F022878A0F1300109290AD837
:1045A00009EB890102EB410100EB01096D1CF2E707
:1045B00057F8049B6D1C28786C280FD006DC4C281B
:1045C00017D068280DD06A2814D104E0742810D0C0
:1045D0007A280FD10DE044F400140AE044F480146A
:1045E00001E044F440146978814202D104F580145A
:1045F0006D1C6D1C28786E281ED00CDC632830D012
:1046000004DC00288BD0582811D19FE0642867D0A3
:1046100069280CD164E073282DD004DC6F2872D097
:10462000702804D194E075286ED078286DD0DDE92B
:104630000F129047761C4BE1C4F30250022806D0BB
:10464000032809D0042801CF09D0066040E101CF3A
:10465000F117C0E900613BE101CF068038E1067047
:1046600036E117F8040B8DF8000000208DF80100EA
:10467000EB46012003E057F804BB4FF0FF30610721
:104680004FF0000102D40DE008F1010188464945D0
:104690000FDA8045F8DB1BF808100029F4D108E098
:1046A00008F1010188468142FADB1BF80810002955
:1046B000F6D1DDE90F23AAEB08008146214600F080
:1046C00031F9304400EB080604E0DDE90F121BF875
:1046D000010B9047B8F10108F7D221464846F2E0B5
:1046E0000A21C4F302524FF0000B0891022A04D0B1
:1046F00001CFC117032A09D00AE0FF1D27F00707E1
:10470000F7E8020108E02CE01EE01FE000B2C1174C
:10471000042A01D140B2C117021E71F1000206DA6B
:104720000023D0EB030063EB01012D2202E0220500
:1047300004D52B228DF82420012203E0E20701D0CA
:104740002022F7E7904653E00A210BE0102109E010
:1047500010214FF0000B44F004044FF008090891B9
:1047600003E008214FF0000B0891C4F30252022A23
:1047700004D001CF0021032A06D006E0FF1D27F058
:104780000707F7E8020103E080B2042A00D1C0B2B3
:104790004FF0000822072BD52A78702A07D0DDF8C1
:1047A00020C08CF0100C5CEA0B0C05D00EE040220F
:1047B0008DF82420012208E050EA010306D03023BE
:1047C0008DF824308DF8252002229046089B83F036
:1047D000080353EA0B030BD150EA010201D162072F
:1047E00006D530228DF824204FF00108A9F10109E7
:1047F0002A78582A04D038A20B9208AA0A920BE011
:104800003AA2F9E75B46089AFBF7E4FC0B9B9B5C3A
:104810000A9A521E0A92137050EA0102F2D10A98C3
:10482000ADEB000000F1200B600702D524F48034CA
:1048300001E04FF00109D94502DDA9EB0B0000E0D2
:10484000002000EB0B0141440890AAEB010AE003B1
:1048500006D4DDE90F232146504600F063F80644F4
:104860004FF0000908E009A911F80900DDE90F126D
:10487000904709F10109761CC145F4DBE0030CD532
:10488000DDE90F232146504600F04CF8064404E0D1
:10489000DDE90F1230209047761C0899481E0890D9
:1048A0000029F5DC08E00A980A990078491C0A9169
:1048B000DDE90F129047761CBBF10001ABF1010B53
:1048C000F1DC21465046DDE90F2300F019F80644DB
:1048D0006D1C21E60928010030313233343536377A
:1048E000383961626364656600000000303132333C
:1048F00034353637383941424344454600000000DC
:104900002DE9F041044600251E461746880404D4CC
:1049100005E039462020B0476D1C641EF9D52846B5
:10492000BDE8F0812DE9F041044600251E46904681
:10493000C80301D5302700E02027880404D505E00E
:1049400041463846B0476D1C641EF9D52846BDE87F
:10495000F081000010B5044606E000BF00F036F913
:104960000120641CFBF7B6FC20780028F6D110BDAE
:1049700013B54FF6FF73012269460248FDF75EFB4F
:1049800000981CBD200200201FB50024A0F1610189
:1049900000940194192901D85D3806E0A0F1300196
:1049A000092904D8302815D013388DF802000822C0
:1049B00069460948FEF703FC1420FBF78BFC0294C0
:1049C000082202A904480394FEF7F9FB1420FBF720
:1049D00081FC1FBD2720E8E76402002070B501229A
:1049E000194D140321462846FBF782FD002221467B
:1049F0002846FBF77DFD012221462846FBF778FD7E
:104A0000002261102846FBF773FD0122110228469F
:104A1000FBF76EFD012000F0B9F80220FBF75AFC0D
:104A2000012221462846FBF763FD302000F0AEF856
:104A30000120FBF74FFC0C2000F0A8F8BDE8704007
:104A40000120FBF747BC0000001C01401FB50124FA
:104A5000FCF716F8FEF7D0F82BA30FCB8DE80F006C
:104A6000FDF72CFEFDF7C8FEFDF7A6FEFDF7F8FEEC
:104A7000FDF712FFFDF758FDFFF7B0FF264D0122AD
:104A800040F2FF112846FBF733FD2448FDF7E4F818
:104A9000912000F07BF86846FFF75CFF012251038C
:104AA0001F48FBF725FD1F4E4FF47A7A4FF48079AB
:104AB000A8466F461B4A121D911E881EFDF71CFD5D
:104AC000B6F90430B6F90220B6F9001016A0FFF7C7
:104AD000E5FCA1B2002245464046FBF709FD5046E1
:104AE000FBF7F8FB4C4500D90124A1B2012228466E
:104AF000FBF7FEFC64000025785DFFF745FF6D1CA9
:104B0000EDB20D2DF8D3D5E76478672D73746D334E
:104B1000326631303300000000200140D80100200F
:104B2000001C0140000000200D0A783D2538782C3B
:104B3000793D2538782C7A3D253878002DE9F041EB
:104B4000114F002405464FF400783E1505FA04F095
:104B5000000601D5012200E0002241463846FBF75D
:104B6000C7FC002231463846FBF7C2FC0020FBF7A9
:104B7000B1FB012231463846FBF7BAFC641C082C15
:104B8000E4D3BDE8F0810000001C014070B50122B3
:104B90000D4E0446150229463046FBF7A9FCF820C5
:104BA000FFF7CCFF04F0F000FFF7C8FF2007000E6E
:104BB000FFF7C4FF0220FBF78DFB29463046BDE816
:104BC00070400022FBF794BC001C014070B501222C
:104BD0000D4E0446150229463046FBF789FCFA20A3
:104BE000FFF7ACFF04F0F000FFF7A8FF2007000E6E
:104BF000FFF7A4FF0120FBF76DFB29463046BDE817
:104C000070400022FBF774BC001C01400000000053
:104C1000000000000102030406070809000000006C
:104C200001020304444C000800000020840100003D
:104C300078020008204D000884010020A410000024
:104C4000EC4400080110300E4458472D53544D33A6
:104C5000324631303313292F1B0859041A65041AC0
:104C60008D041AB9041A09041A3504170403090437
:104C700012013202164083042B572602010203015F
:104C8000031A1A03191F1182105324F41395311BB0
:104C90000845041AE504819A390C811A7D141A71A9
:104CA000041A89041A6504140902221301011DE083
:104CB000320904591A030B15092111011401223F6D
:104CC000160705810304220AE9246A02245A4A24A9
:104CD0000A2107242948695A314B0A06F429CC10C5
:104CE0000E05010906A101050719E029E715281A93
:104CF00025017501950881029501750881039505C7
:104D000075010508190129059112180803910395E9
:104D1000067508261AFF30111429658152C000005B
:0400000508000131BD
:00000001FF
