:020000040800F2
:100000007004002049010008730D0008CB0C0008A3
:10001000710D0008B50100089B0E000800000000EB
:10002000000000000000000000000000510E000869
:10003000B701000800000000750D0008530E00080D
:100040006301000863010008630100086301000800
:1000500063010008630100086301000863010008F0
:1000600063010008630100086301000863010008E0
:1000700063010008630100086301000863010008D0
:1000800063010008630100086301000863010008C0
:1000900063010008630100086301000863010008B0
:1000A00063010008630100086301000863010008A0
:1000B0006301000863010008630100086301000890
:1000C0006301000863010008630100086301000880
:1000D0006301000863010008630100086301000870
:1000E0006301000863010008630100086301000860
:1000F0006301000863010008630100086301000850
:10010000630100086301000863010008630100083F
:10011000630100086301000863010008630100082F
:10012000630100086301000863010008630100081F
:10013000DFF810D000F02CF800480047DD0E000872
:10014000AFF300807004002006488047064800474F
:10015000FEE7FEE7FEE7FEE7FEE7FEE7FEE7FEE777
:10016000FEE7FEE7990E000831010008D2B201E077
:1001700000F8012B491EFBD270470022F6E710B5AC
:1001800013460A4604461946FFF7F0FF204610BD05
:10019000064C074D06E0E06840F0010394E80700D4
:1001A00098471034AC42F6D3FFF7C6FF8011000821
:1001B000A0110008FEE77047704700002DE9F84FD6
:1001C000DFF8C891002409F1040A0AF1040B234660
:1001D0000F270BF1040ED1E00125A54006EA050228
:1001E000AA4276D1DFF8A8C14E68A6EB0C08664596
:1001F0002BD00DDC032E34D005DC36B3012E19D004
:10020000022E2FD11BE0112E16D0122E2AD119E06A
:10021000B8F5881F19D006DCB8F5803F15D0B8F5C1
:10022000801F1FD111E0B8F5001F0ED0B8F5041FD4
:1002300018D10AE0CB6815E0CB681B1D12E0CB6833
:1002400008330FE0CB680C330CE08B682BB1012B2B
:100250004FF0080303D0456104E0042302E0056188
:1002600000E00023FF2A01D8064601E000F1040661
:100270004FEA840501D9A5F12005D6F8008007FAD8
:1002800005FC28EA0C0803FA05F548EA0508C6F853
:1002900000804D68ED0070D53E4DAE6946F0010618
:1002A000AE61AD6924F0030605F0010500953A4DF5
:1002B00006EB050CDCF80850A607360F07FA06F81F
:1002C00025EA0805DFF8D480404503D14FF0000847
:1002D00025E052E0DFF8C880404502D14FF0010828
:1002E0001DE0DFF8C080404502D14FF0020816E063
:1002F000DFF8B480404502D14FF003080FE0DFF88B
:10030000AC80404502D14FF0040808E0DFF8A0803F
:10031000404502D14FF0050801E04FF0060808FA09
:1003200006F848EA0508CCF808804D68D9F800605E
:10033000ED034D4601D5164300E096432E604D680F
:10034000DAF80060AD03554601D5164300E0964348
:100350002E604D68DBF80060ED025D4601D5164366
:1003600000E096432E604D68DEF80060AD027546F1
:1003700001D5164300E096432E60641C0A681646B9
:10038000E2407FF429AFBDE8F88F0000000401408F
:100390000000111000100240000001400008014060
:1003A000000C014000100140001401400018014001
:1003B000001C01400AB1016170470904FBE700001D
:1003C00001488068704700000800002002488168EA
:1003D000027811448160704708000020074810B57A
:1003E000016841F010010160032000F067F800206F
:1003F00000F006F800F024F8002010BD00200240B4
:1004000070B50D4D04464FF47A712878B1FBF0F0C9
:100410000A490968B1FBF0F000F043FC48B9102C20
:1004200007D200222146501E00F028F800206C6000
:1004300070BD012070BD00000800002014000020E5
:100440000C4808B5816941F001018161816901F0C1
:1004500001010091C16941F08051C161C06900F0A2
:10046000805000900448416821F0E06141F0007143
:10047000416008BD0010024000000140F0B40E4B86
:100480001B680C46C3F30223C3F10705042D00D9F2
:100490000425191D072901D2002300E0DB1E0126D7
:1004A00006FA05F1491E214099409E40761E1640ED
:1004B0003143F0BC00F0F2BC0CED00E0064900F066
:1004C000070208684FF6FF03184040EA0220034A7B
:1004D00010430860704700000CED00E00000FA05D2
:1004E0002DE9F0470F46050061D0434E306800F01B
:1004F0000700B84209D2306820F007003843306066
:10050000306800F00700B84251D128683B4C8107A1
:1005100012D5400703D5606840F4E0606060287839
:10052000000703D5606840F4605060606068A968A7
:1005300020F0F000084360602878C00728D0686881
:10054000012810D02168022810D0890700292EDA4E
:10055000616821F0030101436160FFF731FF8046CC
:1005600041F288390DE021688903EFE78901EDE761
:10057000FFF726FFA0EB0801494502D90320BDE89B
:10058000F0876068696800F00C00B0EB810FEFD174
:10059000306800F00700B8420BD9306820F007003F
:1005A00038433060306800F00700B84201D00120C5
:1005B000E5E72878400705D56068E96820F4E06041
:1005C000084360602878000706D56068296920F430
:1005D000605040EAC100606000F018F86168084AA5
:1005E000C1F30311515CC840064908600648006821
:1005F000FFF706FF0020C2E7002002400010024083
:1006000070110008140000200C00002012A185B019
:100610000FC98DE80F0014A0144A006804905168B7
:10062000134801F00C03042B10D0082B0ED1C1F39A
:100630008343C9031DF803000AD5516804AAC1F316
:100640004041515C0A4A5043B0FBF1F005B070479D
:1006500008494843FAE700000203040506070809B1
:100660000A0B0C0D0E0F10100102000000100240CA
:1006700000127A0000093D002DE9F84F040070D007
:100680002078C04DC00749D06868C0F381000128B8
:1006900007D06868C0F38100022809D16868C003E8
:1006A00006D52868800339D560680028E7D035E092
:1006B0006068B0F5803F0BD010B1B0F5A02F11D01D
:1006C000286820F480302860286820F4802002E028
:1006D000286840F480302860606890B1FFF770FEB1
:1006E00006460AE0286840F480202860F0E700BF52
:1006F000FFF766FE801B642873D828688003F7D54F
:100700000CE0FFF75DFE064605E000BFFFF758FE70
:10071000801B6428F0D828688003F7D420789A4E8C
:1007200080074FF001094FF0000839D5686810F0D4
:100730000C0F07D06868C0F38100022809D16868EF
:10074000C00306D42868800714D52069012808D181
:1007500010E02069B0B1C6F80090FFF731FE0746FF
:1007600005E00AE1FFF72CFEC01B0228C4D8286868
:100770008007F7D52868616920F0F80040EAC100D9
:1007800028600DE0C6F80080FFF71AFE074604E077
:10079000FFF716FEC01B022823D828688007F7D46D
:1007A000207800072CD57948A169D9B1C0F800900C
:1007B000FFF706FE074604E0FFF702FEC01B022813
:1007C0000FD8686A8007F7D571484FF4FA5100686E
:1007D000B0FBF1F0009000BF0098411E0091FAD2EA
:1007E0000EE080E0C0F80080FFF7EAFD074604E075
:1007F000FFF7E6FDC01B022875D8686A8007F7D4AA
:100800002078400760D5E8690027C00008D4E8696F
:1008100040F08050E861E869012700F080500090C6
:100820005C480168C90513D40168834641F48071AE
:100830000160FFF7C5FD824606E000BFFFF7C0FD7F
:10084000A0EB0A0064284ED8DBF80000C005F5D5FF
:10085000E06801280AD008B1052813D0286A20F0E2
:1008600001002862286A20F0040002E0286A40F0B3
:1008700001002862E06841F2883B98B1FFF7A0FDD3
:1008800082460BE0286A40F004002862EEE700BFD1
:10089000FFF796FDA0EB0A0159455AD8286A800750
:1008A000F6D50CE0FFF78CFD824605E0FFF788FDEA
:1008B000A0EB0A0159454CD8286A8007F6D41FB12D
:1008C000E86920F08050E861E06988B36968C1F3A5
:1008D0008101022944D00228C6F8608004D0FFF7C5
:1008E0006FFD044638E034E0FFF76AFD074604E098
:1008F000FFF766FDC01B02282BD828688001F7D4BB
:10090000206AB0F5803F05D16868A16820F4003006
:1009100008436860D4E908010843696821F4741148
:1009200008436860C6F86090FFF74AFD044606E099
:1009300025E000BFFFF744FD001B022809D8286806
:100940008001F7D51BE000BFFFF73AFD001B02282E
:1009500002D90320BDE8F88F28688001F4D40EE0A6
:100960000128F7D06868226A00F48031914204D1EE
:10097000616A00F47010884201D00120EAE700208B
:10098000E8E70000001002400000424280044242BA
:10099000140000200070004070B5040009D0606AA7
:1009A000002540B125616561A56294F8510040B110
:1009B0000CE0012070BD6068B0F5827FF4D0E56185
:1009C000F2E784F85050204600F040F8022084F806
:1009D00051002068016821F040010160A088218950
:1009E00000F4827001F404410843A18901F400611C
:1009F0000843217C01F002010843217D01F001013F
:100A00000843218B01F400710843217F01F0380174
:100A1000084394F8201001F080010843218D01F46F
:100A20000051084321680860A069042101EA1040D0
:100A3000216848602068C16921F40061C161656571
:100A4000012084F85100002070BD000030B585B051
:100A5000002400940194029403940068154988428C
:100A600025D11548C16941F48041C161C16901F4D2
:100A700080410491816941F00801816180690F4DD5
:100A800000F0080004904FF42040009002200190F4
:100A90000320039069462846FFF790FB4FF48040FF
:100AA000CDE90004694628460294FFF787FB05B0AC
:100AB00030BD00000038004000100240000C014032
:100AC0002DE9F84F044690F8500000270A9E1D4675
:100AD00092468B464FF0010901280ED0012084F880
:100AE0005000FFF76DFC804694F8510061680128C2
:100AF0000CD0B1F5827F07D102E00220BDE8F88F6B
:100B0000A16809B9042801D00227C2E0BBF1000F97
:100B100027D0BAF1000F24D01DB394F85100042857
:100B200002D0052084F8510000206065C4F838A088
:100B3000E587A587C4F830B0E586A58620646064A3
:100B400020680168490603D4016841F04001016052
:100B5000E068B0F5006F606805D0E8B3012D46D0BD
:100B60007FE0012795E008B1012D39D1206B216884
:100B70000088C860206B801C2063E08E401EE086E9
:100B80002EE02068816889070FD5E18E69B1B9F13F
:100B9000010F0AD1216B0988C160206B801C206382
:100BA000E08E401EE0864FF0000920688168C9078A
:100BB0000CD0E18F51B1C068A16B0880A06B801C84
:100BC000A063E08F401EE0874FF00109FFF7F8FBBC
:100BD000A0EB0800B04200E009E001D3701C50D146
:100BE000E08E0028CDD1E08F0028CAD13FE0206BF5
:100BF000216800780873206B401C2063E08E401E43
:100C0000E0862EE02068816889070FD5E18E69B102
:100C1000B9F1010F0AD1216B09780173206B401CD7
:100C20002063E08E401EE0864FF000092068816856
:100C3000C9070CD0E18F51B1C068A16B0870A06BDF
:100C4000401CA063E08F401EE0874FF00109FFF7D2
:100C5000B7FBA0EB0800B04202D3701C01D010E03B
:100C60007EB1E08E0028CDD1E08F0028CAD1424667
:100C70003146204600F07FF828B10127202060652A
:100C800007E0032705E0A06818B92068C1688068FC
:100C90000090012084F85100002084F8500038466C
:100CA0002CE710B5401EB0F1807F01D3012010BDAC
:100CB0004FF0E02460610F21601700F0EFF8002092
:100CC000A06107202061002010BDFEE770B586B04E
:100CD000002414480094019402940394816941F023
:100CE00008018161816901F008010491816941F085
:100CF0000401816180690C4E00F004004FF48055BE
:100D00000490002229463046FFF754FB012000954D
:100D1000CDE901040220039069463046FFF74EFA00
:100D200006B070BD00100240000C01400F4810B525
:100D30000D4901604FF48271416000218160C16002
:100D40004FF400720161C0E90512C16101624162A4
:100D500081620A21C162FFF71FFE002803D0BDE8AF
:100D60001040FFF729BA10BD0038004018000020DD
:100D7000FEE77047704738B50B46009204460022E4
:100D8000802100F009F8002804D0606D40F02000B8
:100D90006065032038BD00002DE9F8431E469146EA
:100DA00088460446089DFFF70BFB401B351AFFF7EA
:100DB00007FB074625480068C0F3CB30684338E09E
:100DC000701C37D0FFF7FCFAC01BA84203D215B144
:100DD000009860B32CE02068416821F0E001416098
:100DE0006068B0F5827F0BD1A068B0F5004F02D0EB
:100DF000B0F5806F04D12068016821F040010160E6
:100E0000A06AB0F5005F09D12068016821F40051A3
:100E100001602068016841F400510160012084F8FC
:100E20005100002084F850000320BDE8F88300251D
:100E3000401E00902068816838EA010004D000213B
:100E40004945BDD10020F0E70121F9E71400002059
:100E50007047FFF7BBBA10B590B028216846FFF77E
:100E60008CF914210AA8FFF788F9022000900120CC
:100E7000049010200024059007946846FFF7FCFBBF
:100E80000F20CDE90A040C940D9400210AA80E94B9
:100E9000FFF726FB10B010BD7047FEE70907090EEB
:100EA000002804DB00F1E02080F80014704700F017
:100EB0000F0000F1E02080F8141D704702E008C820
:100EC000121F08C1002AFAD170477047002001E0C4
:100ED00001C1121F002AFBD170470000FFF77EFA04
:100EE000FFF7B9FFFFF7F2FEFFF720FF002000F049
:100EF00093F800F019F90D4C0122214660600020A2
:100F000000F048F80520207000F0F8F80122214692
:100F1000002000F0D5F800F0B9F8FF202070012281
:100F20002146002000F036F8FEE700000000002017
:100F30002DE9F04115460E46044600F0DFF8DFF8D3
:100F400050804FF48057002239464046FFF732FA6E
:100F5000022000F089F8C4F3074000F085F8C4F3DC
:100F6000072000F081F8E0B200F07EF8002404E0F1
:100F7000305D00F079F8641CA4B2AC42F8D30122D1
:100F800039464046FFF716FABDE8F04100F07EB85A
:100F9000000C01402DE9F041DFF8508014460D4669
:100FA00006464FF48057002239464046FFF702FAC2
:100FB000032000F059F8C6F3074000F055F8C6F3D7
:100FC000072000F051F8F0B200F04EF804E000BF46
:100FD00000F00EF805F8010B641EA4B2F8D23946F1
:100FE0004046BDE8F0410122FFF7E4B9000C0140A2
:100FF0000EB56FF07F400090012301AA02A90548B9
:10100000FFF75EFD10B1FF208DF804009DF804008D
:101010000EBD00001800002070B5044600F06EF808
:1010200000F034F80F4E4FF4805500222946304628
:10103000FFF7C0F9202000F017F8C4F3074000F0D4
:1010400013F8C4F3072000F00FF8E0B200F00CF83A
:10105000012229463046FFF7ADF9BDE8704000F0A7
:1010600015B80000000C014001B582B06FF07F4060
:101070000090012301AA02A90348FFF721FD0028DF
:1010800000D001200EBD00001800002070B50B4DEF
:101090004FF48054002221462846FFF78BF90520A3
:1010A000FFF7E2FFFFF7A4FFC007FBD12146284668
:1010B000BDE870400122FFF77DB90000000C01403F
:1010C0002DE9F0410646C0B2C0F580740F461546C2
:1010D000A24200D814464FF48078A2B23946304676
:1010E000FFF726FFA54207D0274426442D1B444680
:1010F000A542F2D82C46F0E7BDE8F08170B5094D65
:101100004FF48054002221462846FFF753F9062069
:10111000FFF7AAFF21462846BDE870400122FFF7ED
:1011200049B90000000C01402DE9F0410F4F4FF488
:101130008056002231463846FFF73CF99F20FFF7E2
:1011400093FFFFF755FF0546FFF752FF0446FFF7F1
:101150004FFF8046012231463846FFF72BF928041D
:1011600040EA042040EA0800BDE8F081000C01409C
:101170000000000000000000010203040607080947
:10118000A01100080000002018000000BC0E00089C
:10119000B81100081800002058040000CC0E000808
:1011A000FF0000000000000001000000100000002F
:0811B000000000000024F4001F
:0400000508000131BD
:00000001FF
