:020000040800F2
:10000000A804002049010008EF0F0008EB0E0008CB
:10001000ED0F0008E1010008511200080000000087
:10002000000000000000000000000000F30F0008C6
:100030001D03000800000000F10F0008F50F000884
:100040006301000863010008630100086301000800
:1000500063010008630100086301000863010008F0
:1000600063010008630100086301000863010008E0
:1000700063010008630100086301000863010008D0
:1000800063010008630100086301000863010008C0
:1000900063010008630100086301000863010008B0
:1000A00063010008630100086301000863010008A0
:1000B0006301000863010008630100086301000890
:1000C0006301000863010008630100086301000880
:1000D0006301000863010008630100086301000870
:1000E0006301000863010008630100086301000860
:1000F0006301000863010008630100086301000850
:10010000630100086301000863010008630100083F
:10011000630100086301000863010008630100082F
:10012000630100086301000863010008630100081F
:10013000DFF810D000F042F8004800475D140008D6
:10014000AFF30080A8040020064880470648004717
:10015000FEE7FEE7FEE7FEE7FEE7FEE7FEE7FEE777
:10016000FEE7FEE73B10000831010008D2B201E0D3
:1001700000F8012B491EFBD270470022F6E710B5AC
:1001800013460A4604461946FFF7F0FF204610BD05
:1001900030B50B46014600202022012409E021FA57
:1001A00002F59D4205D303FA02F5491B04FA02F554
:1001B0002844151EA2F10102F1DC30BD064C074DAA
:1001C00006E0E06840F0010394E807009847103427
:1001D000AC42F6D3FFF7B0FFE414000804150008A2
:1001E000FEE700001FB54FF48070009001200190E1
:1001F000032003906946024800F0A4F81FBD0000E8
:10020000002001402DE9F0410025174E2C464FF407
:1002100080774FF001083946304600F08FF900280A
:10022000F9D0282001F0F0F83946304600F086F980
:1002300001280BD0C4F1070108FA01F08543641CC2
:10024000E4B2082CE7D32846BDE8F08139463046B1
:1002500000F074F90128F9D0C4F1070108FA01F09F
:10026000C0B20543EBE70000002001407FB5044623
:10027000FFF7B8FF284E4FF480750022294630461C
:1002800000F061F9122000F04BF8012229463046B7
:1002900000F059F91E2001F0B7F80020CDE9005018
:1002A00002906946304600F04DF82946304600F08D
:1002B00045F970BB2946304600F040F90028F9D0D6
:1002C0002946304600F03AF90128F9D0FFF79AFFA5
:1002D0002070FFF797FF6070FFF794FFA070FFF7A3
:1002E00091FFE070FFF78EFF2071FFF77BFF012287
:1002F0002946304600F027F920786178E2780844F2
:10030000A178114408442179884203D1012004B026
:1003100070BDFFE70020FAE70020014070477047FA
:1003200070B5044600F014F90546601C02D004487C
:100330000078044400F00CF9401BA042FAD370BDD1
:10034000080000202DE9F84FDFF8C891002409F1DA
:10035000040A0AF1040B23460F270BF1040ED1E027
:100360000125A54006EA0502AA4276D1DFF8A8C118
:100370004E68A6EB0C0866452BD00DDC032E34D05E
:1003800005DC36B3012E19D0022E2FD11BE0112E21
:1003900016D0122E2AD119E0B8F5881F19D006DC24
:1003A000B8F5803F15D0B8F5801F1FD111E0B8F522
:1003B000001F0ED0B8F5041F18D10AE0CB6815E075
:1003C000CB681B1D12E0CB6808330FE0CB680C3301
:1003D0000CE08B682BB1012B4FF0080303D0456173
:1003E00004E0042302E0056100E00023FF2A01D8B5
:1003F000064601E000F104064FEA840501D9A5F1A3
:100400002005D6F8008007FA05FC28EA0C0803FA54
:1004100005F548EA0508C6F800804D68ED0070D57E
:100420003E4DAE6946F00106AE61AD6924F00306AB
:1004300005F0010500953A4D06EB050CDCF8085077
:10044000A607360F07FA06F825EA0805DFF8D48074
:10045000404503D14FF0000825E052E0DFF8C880A6
:10046000404502D14FF001081DE0DFF8C080404553
:1004700002D14FF0020816E0DFF8B480404502D107
:100480004FF003080FE0DFF8AC80404502D14FF099
:10049000040808E0DFF8A080404502D14FF00508CD
:1004A00001E04FF0060808FA06F848EA0508CCF81B
:1004B00008804D68D9F80060ED034D4601D516431C
:1004C00000E096432E604D68DAF80060AD035546B3
:1004D00001D5164300E096432E604D68DBF80060BE
:1004E000ED025D4601D5164300E096432E604D684F
:1004F000DEF80060AD02754601D5164300E0964374
:100500002E60641C0A681646E2407FF429AFBDE8FD
:10051000F88F00000004014000001110001002409C
:100520000000014000080140000C014000100140A3
:100530000014014000180140001C01408068084080
:1005400000D0012070470AB1016170470904FBE740
:100550000148806870470000080000200248816858
:10056000027811448160704708000020074810B5E8
:10057000016841F010010160032000F067F80020DD
:1005800000F006F800F024F8002010BD0020024022
:1005900070B50D4D04464FF47A712878B1FBF0F038
:1005A0000A490968B1FBF0F000F0DEFA48B9102CF6
:1005B00007D200222146501E00F028F800206C606F
:1005C00070BD012070BD0000080000201400002054
:1005D0000C4808B5816941F001018161816901F030
:1005E00001010091C16941F08051C161C06900F011
:1005F000805000900448416821F0E06141F00071B2
:10060000416008BD0010024000000140F0B40E4BF4
:100610001B680C46C3F30223C3F10705042D00D960
:100620000425191D072901D2002300E0DB1E012645
:1006300006FA05F1491E214099409E40761E16405B
:100640003143F0BC00F016BE0CED00E0064900F0AE
:10065000070208684FF6FF03184040EA0220034AE9
:1006600010430860704700000CED00E00000FA0540
:100670002DE9F0470F46050061D0434E306800F089
:100680000700B84209D2306820F0070038433060D4
:10069000306800F00700B84251D128683B4C810710
:1006A00012D5400703D5606840F4E06060602878A8
:1006B000000703D5606840F4605060606068A96816
:1006C00020F0F000084360602878C00728D06868F0
:1006D000012810D02168022810D0890700292EDABD
:1006E000616821F0030101436160FFF731FF80463B
:1006F00041F288390DE021688903EFE78901EDE7D0
:10070000FFF726FFA0EB0801494502D90320BDE809
:10071000F0876068696800F00C00B0EB810FEFD1E2
:10072000306800F00700B8420BD9306820F00700AD
:1007300038433060306800F00700B84201D0012033
:10074000E5E72878400705D56068E96820F4E060AF
:10075000084360602878000706D56068296920F49E
:10076000605040EAC100606000F038F86168084AF3
:10077000C1F30311515CC84006490860064800688F
:10078000FFF706FF0020C2E70020024000100240F1
:10079000CC140008140000200C0000200448054977
:1007A00000684968044AC1F30221515CC84070479F
:1007B0001400002000100240DC1400080448054921
:1007C00000684968044AC1F3C221515CC8407047BF
:1007D0001400002000100240DC14000812A185B0B3
:1007E0000FC98DE80F0014A0144A006804905168E6
:1007F000134801F00C03042B10D0082B0ED1C1F3C9
:100800008343C9031DF803000AD5516804AAC1F344
:100810004041515C0A4A5043B0FBF1F005B07047CB
:1008200008494843FAE700000203040506070809DF
:100830000A0B0C0D0E0F10100102000000100240F8
:1008400000127A0000093D002DE9F84F040070D035
:100850002078C04DC00749D06868C0F381000128E6
:1008600007D06868C0F38100022809D16868C00316
:1008700006D52868800339D560680028E7D035E0C0
:100880006068B0F5803F0BD010B1B0F5A02F11D04B
:10089000286820F480302860286820F4802002E056
:1008A000286840F480302860606890B1FFF750FEFF
:1008B00006460AE0286840F480202860F0E700BF80
:1008C000FFF746FE801B642873D828688003F7D59D
:1008D0000CE0FFF73DFE064605E000BFFFF738FEDF
:1008E000801B6428F0D828688003F7D420789A4EBB
:1008F00080074FF001094FF0000839D5686810F003
:100900000C0F07D06868C0F38100022809D168681D
:10091000C00306D42868800714D52069012808D1AF
:1009200010E02069B0B1C6F80090FFF711FE07464D
:1009300005E00AE1FFF70CFEC01B0228C4D82868B6
:100940008007F7D52868616920F0F80040EAC10007
:1009500028600DE0C6F80080FFF7FAFD074604E0C6
:10096000FFF7F6FDC01B022823D828688007F7D4BC
:10097000207800072CD57948A169D9B1C0F800903A
:10098000FFF7E6FD074604E0FFF7E2FDC01B022883
:100990000FD8686A8007F7D571484FF4FA5100689C
:1009A000B0FBF1F0009000BF0098411E0091FAD218
:1009B0000EE080E0C0F80080FFF7CAFD074604E0C3
:1009C000FFF7C6FDC01B022875D8686A8007F7D4F8
:1009D0002078400760D5E8690027C00008D4E8699E
:1009E00040F08050E861E869012700F080500090F5
:1009F0005C480168C90513D40168834641F48071DD
:100A00000160FFF7A5FD824606E000BFFFF7A0FDED
:100A1000A0EB0A0064284ED8DBF80000C005F5D52D
:100A2000E06801280AD008B1052813D0286A20F010
:100A300001002862286A20F0040002E0286A40F0E1
:100A400001002862E06841F2883B98B1FFF780FD21
:100A500082460BE0286A40F004002862EEE700BFFF
:100A6000FFF776FDA0EB0A0159455AD8286A80079E
:100A7000F6D50CE0FFF76CFD824605E0FFF768FD58
:100A8000A0EB0A0159454CD8286A8007F6D41FB15B
:100A9000E86920F08050E861E06988B36968C1F3D3
:100AA0008101022944D00228C6F8608004D0FFF7F3
:100AB0004FFD044638E034E0FFF74AFD074604E006
:100AC000FFF746FDC01B02282BD828688001F7D409
:100AD000206AB0F5803F05D16868A16820F4003035
:100AE00008436860D4E908010843696821F4741177
:100AF00008436860C6F86090FFF72AFD044606E0E8
:100B000025E000BFFFF724FD001B022809D8286854
:100B10008001F7D51BE000BFFFF71AFD001B02287C
:100B200002D90320BDE8F88F28688001F4D40EE0D4
:100B30000128F7D06868226A00F48031914204D11C
:100B4000616A00F47010884201D00120EAE70020B9
:100B5000E8E70000001002400000424280044242E8
:100B6000140000200070004010B5401EB0F1807FDE
:100B700001D3012010BD4FF0E02460610F21601708
:100B800000F078FB0020A06107202061002010BD4C
:100B900070B590F83C20012A2CD0012480F83C400C
:100BA000022280F83D2003685A689D6822F0700692
:100BB0000A6832435A60104B02689A420ED00F4BBB
:100BC0009A420BD0B2F1804F08D00D4B9A4205D01B
:100BD0000C4B9A4202D00C4B9A4204D1496825F042
:100BE00080031943916080F83D40002180F83C105B
:100BF000084670BD022070BD002C01400034014049
:100C00000004004000080040000C004010B5040043
:100C100003D094F83D0010B107E0012010BD002082
:100C200084F83C00204600F01FF8022084F83D00C4
:100C3000211D206800F002FA012084F8460084F8A3
:100C40003E0084F83F0084F8400084F8410084F8B6
:100C5000420084F8430084F8440084F8450084F896
:100C60003D00002010BD000008B50068064988421C
:100C700008D10648C16941F00401C161C06900F0B2
:100C80000400009008BD0000000800400010024071
:100C900070B5044690F83C00012817D0012584F86F
:100CA0003C50022084F83D002068826822F07702E0
:100CB00022F47F4282600868502830D00DDC202862
:100CC0004DD005DC98B310283BD148E0022070BD20
:100CD000302844D0402834D139E0602828D070280A
:100CE00006D0B0F5805F2CD0B0F5005F29D10AE0C6
:100CF000CB68D1E90121206800F0E6F9206881681D
:100D000041F0770109E0CB68D1E90121206800F0CA
:100D1000DBF92068816841F48041816011E0CA6894
:100D20004968206800F0E2F95021206807E016E0E9
:100D3000CA684968206800F0EAF96021206800F07C
:100D4000CDF984F83D50002084F83C0070BDCA689D
:100D50004968206800F0CAF940212068EFE722685E
:100D600001461046EBE770B5040004D094F83D004E
:100D7000002510B106E0012070BD84F83C502046EB
:100D800000F022F8242084F83D002068C16821F496
:100D90000051C160204600F0CDF92068016921F4BE
:100DA000904101612068416921F02A014161206878
:100DB000C16841F40051C1602564202084F83D00E1
:100DC00084F83E00002070BD30B585B0002400944A
:100DD00001940294039400681449884224D1144871
:100DE000816941F480418161816901F4804104910C
:100DF000816941F00401816180690E4D00F00400B9
:100E000004904FF4007000900220019003200390A2
:100E100069462846FFF796FA2815CDE90004694689
:100E200028460294FFF78EFA05B030BD0038014025
:100E300000100240000801402DE9F843044690F8F4
:100E40003D001F4616460D4620284CD1C5B1BEB107
:100E500094F83C00012846D0012084F83C004FF073
:100E60000008C4F84080212084F83D00FFF770FBA3
:100E7000A6848146E684A068B0F5805F03D004E0D4
:100E80000120BDE8F883206928B12E465FF00005F7
:100E900084F83C800EE00026FAE78021204600F02E
:100EA000A5F9A0B9AEB116F8010B21684860E08C35
:100EB000401EE084E08C4B464FF000020097002873
:100EC000EBD14FF04001204600F090F930B1032003
:100ED000D7E735F8020BC0F30800E6E7202084F8D6
:100EE0003D000020CDE70220CBE7FEE770B586B0DD
:100EF000002414480094019402940394816941F4FD
:100F000080718161816901F480710491816941F08E
:100F1000040181618069012200F004000A4E15027B
:100F2000049029463046FFF70EFB11200095CDE9CD
:100F300001040220039069463046FFF703FA06B029
:100F400070BD0000001002400020014010B586B0C6
:100F500000241748009401940294039404941349C4
:100F6000059401600721C0E901144FF6FF71C0E943
:100F700003148461FFF74AFE08B1FFF7D0F94FF47C
:100F80008050009069460A48FFF782FE08B1FFF7DB
:100F9000C6F9049404A906480594FFF7F9FD002852
:100FA00001D0FFF7BCF906B010BD000000080040FA
:100FB0001C0000200C4810B50A4901604FF4E131D3
:100FC0004160002181600C22C160C0E9041281618E
:100FD000C161FFF7C8FE002803D0BDE81040FFF74D
:100FE0009EB910BD0038014064000020FEE7704744
:100FF00070477047FFF7B2BA10B590B02821684625
:10100000FFF7BBF814210AA8FFF7B7F802200090F9
:101010000120049010200024059007946846FFF7F3
:1010200013FC0F20CDE90A040C940D9400210AA8AA
:101030000E94FFF71DFB10B010BD7047F0B50268AD
:101040001C4B1D4D1D4E1E4F1E4C4FF0804C9842A8
:1010500009D0A04207D0604505D0A84203D0B042D5
:1010600001D0B84204D122F0700E4A6842EA0E0262
:10107000984209D0A04207D0604505D0A84203D0CD
:10108000B04201D0B84203D122F44075CA682A4365
:101090004D6922F080022A4302608A68C2620A68AF
:1010A0008262984201D0A04201D109690163012105
:1010B0004161F0BD002C01400004004000080040E8
:1010C000000C00400034014010B5846842EA03225D
:1010D00024F47F440A432243826010BD826822F0D8
:1010E00070020A4342F007018160704710B5036A3D
:1010F000046A24F001040462846924F0F00444EAE0
:10110000021423F00A020A438461026210BD10B582
:10111000036A23F0100303628369046A23F47043B3
:1011200043EA023224F0A00343EA01118261016222
:1011300010BD000070B5044600680169E26821F442
:101140004051114301612169A06808436169084366
:101150002168CA6841F20C639A430243CA6020685E
:101160004169A26921F44071114341611E4920681F
:10117000884202D1FFF722FB01E0FFF70FFB00EBF3
:10118000C00101EB0012606864218000B2FBF0F343
:10119000B3FBF1F36FF018067343B2FBF0F5B2FB4B
:1011A000F0F605EB8305322303EB0515B5FBF1F5EE
:1011B000B6FBF1F605F0F00505EB0615B2FBF0F60F
:1011C000B2FBF0F0B0FBF1F06FF01802504306EB09
:1011D000800003EB0010B0FBF1F0216800F00F007D
:1011E0002844886070BD0000003801402DE9F041BE
:1011F000984617460E460446069D1DE0681C1BD007
:101200002DB1FFF7A5F9A0EB0800A84214D920687A
:10121000C16821F4D071C1602068416921F00101E9
:101220004161202084F83D0084F83E00002084F8CD
:101230003C000320BDE8F0812068006836EA000029
:1012400004D00020B842D9D00020F3E70120F9E70C
:10125000FEE700000FB4054B10B503A9044A02983D
:1012600000F028F810BC5DF814FB000045140008DD
:10127000180000200907090E002804DB00F1E02017
:1012800080F80014704700F00F0000F1E02080F8B3
:10129000141D704702E008C8121F08C1002AFAD1C5
:1012A00070477047002001E001C1121F002AFBD1E6
:1012B000704700002DE9FF4F89B09B46044600258A
:1012C00006E025280BD05A460B999047641C6D1CEC
:1012D00020780028F5D10DB02846BDE8F08F002712
:1012E000B8460122474900E0074314F8013F203B7C
:1012F00002FA03F00842F7D120782E2819D114F809
:10130000010F47F004072A280ED06FF02F02207833
:10131000A0F1300109290CD808EB880102EB41014A
:1013200000EB0108641CF2E70A98641C50F8048B77
:101330000A9020780028CED0642808D0692806D0EA
:1013400075281ED05A460B9990476D1C58E00A9993
:101350004FF00A0901C90A91002802DA40422D2102
:1013600002E0390504D52B218DF82010012103E07E
:10137000F90704D02021F7E78A4608AE0DE00021E6
:10138000FAE70A994FF00A0901C90A91F7E74946B5
:10139000FEF7FEFE303106F8011D0028F7D1ADEB57
:1013A000060000F12009780701D44FF00108C84574
:1013B00002DDA8EB090000E000208046002706E0DF
:1013C00008A85A46C05D0B9990476D1C7F1C574575
:1013D000F6DB04E030205A460B9990476D1CB8F1BB
:1013E0000001A8F10108F5DC05E016F8010B5A46EA
:1013F0000B9990476D1CB9F10001A9F10109F4DCCA
:10140000641C65E7092801000D4900220B685A6237
:101410000A68136843F00103136009684A6A82424C
:10142000FCD3086A41F21112104207D1086A9210E7
:10143000104203D1086820F00100086070470000E6
:101440001C00002013B54FF6FF73012269460248C5
:10145000FFF7F2FC00981CBD6400002008B5FFF700
:1014600085F8FFF7C9FDFFF741FDFFF7A3FDFFF783
:101470006DFD0B4C40F6B8350948FEF7F7FE40B15C
:10148000E0780090A3786278217806A0FFF7E2FE6A
:1014900002E009A0FFF7DEFE2846FEF741FFEBE77A
:1014A0000000002025642E25642052482C25642E3F
:1014B000256443200D0A00005265616420444854AD
:1014C0003131204552524F52210D0A0000000000D8
:1014D00000000000010203040607080900000000E4
:1014E0000102030404150008000000201C00000095
:1014F00094120008201500081C0000208C04000035
:10150000A41200080000000000000000010000001C
:1015100010000000000000000024F40000000000A3
:0400000508000131BD
:00000001FF
