:020000040800F2
:10000000E00400204901000897110008AF10000823
:100010009511000857020008F91A000800000000B6
:100020000000000000000000000000008919000826
:100030005902000800000000991100088B190008FF
:100040006301000863010008630100086301000800
:1000500063010008630100086301000863010008F0
:1000600063010008630100086301000863010008E0
:1000700063010008630100086301000863010008D0
:1000800063010008630100086301000863010008C0
:1000900063010008630100086301000863010008B0
:1000A00063010008630100086301000863010008A0
:1000B0006301000863010008630100086301000890
:1000C0006301000863010008630100086301000880
:1000D0006301000863010008630100086301000870
:1000E0006301000863010008630100086301000860
:1000F0006301000863010008630100086301000850
:10010000630100086301000863010008630100083F
:10011000630100086301000863010008630100082F
:10012000630100086301000863010008630100081F
:10013000DFF810D000F06EF800480047A11D00085D
:10014000AFF30080E00400200648804706480047DF
:10015000FEE7FEE7FEE7FEE7FEE7FEE7FEE7FEE777
:10016000FEE7FEE7D919000831010008202A04DB68
:10017000203A21FA02F00021704721FA02F3D04020
:10018000C2F120029140084319467047D2B201E003
:1001900000F8012B491EFBD270470022F6E710B58C
:1001A00013460A4604461946FFF7F0FF204610BDE5
:1001B0002DE9F05F0546002092469B46884606469C
:1001C000814640241BE02846414647462246FFF729
:1001D000CDFF53465A46C01A914110D311461846D6
:1001E000224600F029F82D1A67EB01084F462246F7
:1001F0000120002100F020F817EB00094E41201EDD
:10020000A4F10104DFDC484631462A464346BDE8F6
:10021000F09F0000064C074D06E0E06840F0010347
:1002200094E8070098471034AC42F6D3FFF784FFF8
:10023000601F0008801F0008202A04DB203A00FA13
:1002400002F1002070479140C2F1200320FA03F32D
:10025000194390407047FEE77047704770B50446F9
:1002600000F010F90546601C02D0044800780444F0
:1002700000F008F9401BA042FAD370BD0000002036
:100280002DE9F84FDFF8C891002409F1040A0AF1BA
:10029000040B23460F270BF1040ED1E00125A540E6
:1002A00006EA0502AA4276D1DFF8A8C14E68A6EB9D
:1002B0000C0866452BD00DDC032E34D005DC36B39C
:1002C000012E19D0022E2FD11BE0112E16D0122E86
:1002D0002AD119E0B8F5881F19D006DCB8F5803F9F
:1002E00015D0B8F5801F1FD111E0B8F5001F0ED052
:1002F000B8F5041F18D10AE0CB6815E0CB681B1DC8
:1003000012E0CB6808330FE0CB680C330CE08B684D
:100310002BB1012B4FF0080303D0456104E0042307
:1003200002E0056100E00023FF2A01D8064601E053
:1003300000F104064FEA840501D9A5F12005D6F89D
:10034000008007FA05FC28EA0C0803FA05F548EADC
:100350000508C6F800804D68ED0070D53E4DAE69C9
:1003600046F00106AE61AD6924F0030605F0010513
:1003700000953A4D06EB050CDCF80850A607360F41
:1003800007FA06F825EA0805DFF8D480404503D1CE
:100390004FF0000825E052E0DFF8C880404502D168
:1003A0004FF001081DE0DFF8C080404502D14FF05A
:1003B000020816E0DFF8B480404502D14FF0030890
:1003C0000FE0DFF8AC80404502D14FF0040808E0B0
:1003D000DFF8A080404502D14FF0050801E04FF062
:1003E000060808FA06F848EA0508CCF808804D68BF
:1003F000D9F80060ED034D4601D5164300E0964361
:100400002E604D68DAF80060AD03554601D51643FD
:1004100000E096432E604D68DBF80060ED025D461B
:1004200001D5164300E096432E604D68DEF800606B
:10043000AD02754601D5164300E096432E60641C5C
:100440000A681646E2407FF429AFBDE8F88F000045
:1004500000040140000011100010024000000140A3
:1004600000080140000C0140001001400014014050
:1004700000180140001C01400AB1016170470904E5
:10048000FBE7000001488068704700000000002082
:1004900002488168027811448160704700000020A2
:1004A000074810B5016841F010010160032000F019
:1004B00067F8002000F006F800F024F8002010BDD6
:1004C0000020024070B50D4D04464FF47A71287833
:1004D000B1FBF0F00A490968B1FBF0F000F010FD43
:1004E00048B9102C07D200222146501E00F028F8EF
:1004F00000206C6070BD012070BD00000000002075
:100500000C0000200C4808B5816941F001018161AF
:10051000816901F001010091C16941F08051C1611F
:10052000C06900F0805000900448416821F0E0610B
:1005300041F00071416008BD001002400000014020
:10054000F0B40E4B1B680C46C3F30223C3F107053E
:10055000042D00D90425191D072901D2002300E02C
:10056000DB1E012606FA05F1491E214099409E40F6
:10057000761E16403143F0BC01F0D0BA0CED00E01D
:10058000064900F0070208684FF6FF03184040EAEA
:100590000220034A10430860704700000CED00E0A1
:1005A0000000FA052DE9F0470F46050061D0434EE3
:1005B000306800F00700B84209D2306820F0070028
:1005C00038433060306800F00700B84251D12868E5
:1005D0003B4C810712D5400703D5606840F4E060CA
:1005E00060602878000703D5606840F46050606060
:1005F0006068A96820F0F000084360602878C007B0
:1006000028D06868012810D02168022810D08907F6
:1006100000292EDA616821F0030101436160FFF7D0
:1006200031FF804641F288390DE021688903EFE708
:100630008901EDE7FFF726FFA0EB0801494502D944
:100640000320BDE8F0876068696800F00C00B0EB3B
:10065000810FEFD1306800F00700B8420BD9306845
:1006600020F0070038433060306800F00700B842DF
:1006700001D00120E5E72878400705D56068E968E2
:1006800020F4E060084360602878000706D56068C1
:10069000296920F4605040EAC100606000F038F839
:1006A0006168084AC1F30311515CC84006490860FB
:1006B00006480068FFF706FF0020C2E7002002405E
:1006C00000100240481F00080C0000200400002019
:1006D0000448054900684968044AC1F30221515C95
:1006E000C84070470C00002000100240581F00084E
:1006F0000448054900684968044AC1F3C221515CB5
:10070000C84070470C00002000100240581F00082D
:1007100013A185B00FC98DE80F0015A0154A006818
:100720000490516801F00C00042804D0082804D07B
:10073000114805B070471148FBE7C1F38343C90373
:100740001DF8030009D5516804AAC1F34041515C6A
:100750000A4A5043B0FBF1F0EBE709494843E8E7A8
:1007600002030405060708090A0B0C0D0E0F1010F2
:10077000010200000010024000127A00001BB700C6
:1007800000093D002DE9F84F040070D02078C04DDD
:10079000C00749D06868C0F38100012807D06868A5
:1007A000C0F38100022809D16868C00306D5286813
:1007B000800339D560680028E7D035E06068B0F57F
:1007C000803F0BD010B1B0F5A02F11D0286820F4D5
:1007D00080302860286820F4802002E0286840F4F7
:1007E00080302860606890B1FFF74CFE06460AE052
:1007F000286840F480202860F0E700BFFFF742FE41
:10080000801B642873D828688003F7D50CE0FFF7B5
:1008100039FE064605E000BFFFF734FE801B642862
:10082000F0D828688003F7D420789A4E80074FF0DC
:1008300001094FF0000839D5686810F00C0F07D097
:100840006868C0F38100022809D16868C00306D433
:100850002868800714D52069012808D110E0206994
:10086000B0B1C6F80090FFF70DFE074605E00AE1BB
:10087000FFF708FEC01B0228C4D828688007F7D5F8
:100880002868616920F0F80040EAC10028600DE0A6
:10089000C6F80080FFF7F6FD074604E0FFF7F2FD1B
:1008A000C01B022823D828688007F7D420780007C7
:1008B0002CD57948A169D9B1C0F80090FFF7E2FDC5
:1008C000074604E0FFF7DEFDC01B02280FD8686A68
:1008D0008007F7D571484FF4FA510068B0FBF1F08A
:1008E000009000BF0098411E0091FAD20EE080E017
:1008F000C0F80080FFF7C6FD074604E0FFF7C2FD21
:10090000C01B022875D8686A8007F7D42078400792
:1009100060D5E8690027C00008D4E86940F080503D
:10092000E861E869012700F0805000905C480168A8
:10093000C90513D40168834641F480710160FFF753
:10094000A1FD824606E000BFFFF79CFDA0EB0A0078
:1009500064284ED8DBF80000C005F5D5E068012812
:100960000AD008B1052813D0286A20F001002862B7
:10097000286A20F0040002E0286A40F001002862A2
:10098000E06841F2883B98B1FFF77CFD82460BE0BE
:10099000286A40F004002862EEE700BFFFF772FD0E
:1009A000A0EB0A0159455AD8286A8007F6D50CE011
:1009B000FFF768FD824605E0FFF764FDA0EB0A0142
:1009C00059454CD8286A8007F6D41FB1E86920F051
:1009D0008050E861E06988B36968C1F38101022948
:1009E00044D00228C6F8608004D0FFF74BFD0446CF
:1009F00038E034E0FFF746FD074604E0FFF742FD2C
:100A0000C01B02282BD828688001F7D4206AB0F5D3
:100A1000803F05D16868A16820F400300843686011
:100A2000D4E908010843696821F474110843686037
:100A3000C6F86090FFF726FD044606E025E000BFFB
:100A4000FFF720FD001B022809D828688001F7D590
:100A50001BE000BFFFF716FD001B022802D9032090
:100A6000BDE8F88F28688001F4D40EE00128F7D0A3
:100A70006868226A00F48031914204D1616A00F40E
:100A80007010884201D00120EAE70020E8E700006A
:100A90000010024000004242800442420C0000204C
:100AA000007000402DE9FE430446002603200D4659
:100AB00084F83400606C03285ED0B5F5805F5BD0AD
:100AC0004FF4006700204FF08068BD421FD181467F
:100AD000009001900021206800F075FB800113D484
:100AE0006946204600F012FE07000DD10198400330
:100AF00034D5B4F850000104206800F094FB0700DE
:100B000002D10221206823E0A06B384328E01DB108
:100B1000A06B40F0006023E081460090019000212E
:100B2000206800F050FB8001EED46946204600F0BA
:100B3000EDFD0700E8D10198C0030FD5B4F85000CF
:100B40000104206800F06FFB0700DDD10021206860
:100B500000F0B5FB0700D7D14F46D5E74746D3E7AE
:100B6000A063A06B144F4FF0010848B12068876361
:100B700084F8348001260EE0A06B40F08050EFE74F
:100B8000211DD4E9050C0EC9CDE90050CDF808C0EF
:100B9000206800F01BFB4FF40071206800F076FB2A
:100BA00028B121688F63A16B0143A163012684F8FA
:100BB00034803046BDE8FE83FF05400050F8742FB6
:100BC000120E0A700268120A4A80027843681206FE
:100BD00042EA13224A6002790A728268120E4A724D
:100BE0008268C368120242EA1362CA60C268C2F332
:100BF00003520A74C268C2F30B224A82007BC0F31C
:100C0000460008750120487500207047F0B5426E17
:100C1000920F0A70426EC2F383624A70426EC2F350
:100C200001628A70426E120CCA70B0F86420120A17
:100C30000A7190F864204A71826E120DCA80826E29
:100C4000C2F303420A72B0F86820C2F3C0324A729B
:100C5000B0F86820C2F380328A72B0F86820C2F31C
:100C60004032CA72B0F86820C2F300320A7300261C
:100C70004E73426C4FF40075012462B1012A3AD0E0
:100C8000026847499163816B41F08051816380F82C
:100C900034400120F0BDB0F86820C36E9205120DFB
:100CA00042EA93720A61C26EC2F3C2620A75C26EF0
:100CB000C2F302624A75C26EC2F342528A75C26EB4
:100CC000C2F38242CA75C26EC2F3C2320A760A69A0
:100CD000521C42650B7E03F007039B1C9A40426541
:100CE0000B7A03F00F0704FA07F383655B0A5A4394
:100CF000C0E917250EE090F86820C36E9206920AAC
:100D000042EA13420A610A69521C92024265C0E932
:100D10001652056630F86C2FC2F3803201F8192F95
:100D20000288C2F3C6124A70027802F07F028A700B
:100D30004268D20FCA704268C2F341720A714268B7
:100D4000C2F382624A714268C2F383528A71426876
:100D5000C2F34052CA710E724268C2F300424A7234
:100D60008288C2F3C0328A728288C2F38032CA7229
:100D70008288C2F340320A738288C2F300324A7317
:100D80008288C2F381228A738288C2F30122CA73E5
:100D90000079C0F3460008744C740020F0BD0000D8
:100DA000FF05400070B50446B0F85000002501046E
:100DB000206800F05CFB18B1A16B0143A16304E063
:100DC0000021206800F0FFF90546C5F3432070BDFF
:100DD00070B504000ED094F83400002518B92577BA
:100DE000204600F04BF8032084F83400204600F041
:100DF0000BF808B1012070BDA5632563012084F8BC
:100E00003400002070BD0000FEB5002504467620A9
:100E10000095CDE9015029460B460A46206800F0AE
:100E2000D5F928BB134E46F8A05F206800F0E0F922
:100E300001253560204600F04DFD28B184F834507E
:100E4000A16B0143A16313E0204600F0CCFC002815
:100E5000F4D14FF40071206800F018FA002808D08F
:100E6000226805499163A16B0143A16384F8345062
:100E70000120FEBD00003042FF05400030B585B0C6
:100E80000021009101910291039100681849884264
:100E90002BD11848416941F480614161416901F4F5
:100EA00080610491816941F010018161816901F0E3
:100EB00010010491816941F020018161806902245F
:100EC00000F0200004904FF4F850CDE90004032511
:100ED000694603950848FFF7D3F90420CDE90004DB
:100EE000694603950548FFF7CBF905B030BD000012
:100EF0000080014000100240001001400014014039
:100F000010B5401EB0F1807F01D3012010BD4FF01D
:100F1000E02460610F21601700F000FE0020A06156
:100F200007202061002010BD70B5040004D094F8A3
:100F30003D00002510B106E0012070BD84F83C5052
:100F4000204600F023F8242084F83D002068C16882
:100F500021F40051C160204600F040FD2068016985
:100F600021F4904101612068416921F02A01416129
:100F70002068C16841F40051C1602564202084F8D4
:100F80003D0084F83E00002070BD000030B585B003
:100F90000024009401940294039400681449884248
:100FA00024D11448816941F480418161816901F44F
:100FB00080410491816941F00401816180690E4D95
:100FC00000F0040004904FF40070009002200190A3
:100FD0000320039069462846FFF752F92815CDE90A
:100FE0000004694628460294FFF74AF905B030BD6F
:100FF0000038014000100240000801402DE9F8438C
:10100000044690F83D001F4616460D4620284CD158
:10101000C5B1BEB194F83C00012846D0012084F847
:101020003C004FF00008C4F84080212084F83D00C7
:10103000FFF728FAA6848146E684A068B0F5805FB1
:1010400003D004E00120BDE8F883206928B12E46D2
:101050005FF0000584F83C800EE00026FAE780216E
:10106000204600F017FDA0B9AEB116F8010B2168BB
:101070004860E08C401EE084E08C4B464FF000025C
:1010800000970028EBD14FF04001204600F002FD10
:1010900030B10320D7E735F8020BC0F30800E6E7CC
:1010A000202084F83D000020CDE70220CBE7FEE7BA
:1010B00030B585B00024174800940194029403943D
:1010C000816941F010018161816901F01001049191
:1010D000816941F004018161816901F00401049199
:1010E000816941F02001816180690B4D00F0200091
:1010F0000490002202212846FFF7BEF902210120B8
:10110000CDE90010CDE9024169462846FFF7B8F85D
:1011100005B030BD00100240001401400E4810B56B
:101120000C490160002141608160C1600161416141
:101130008161FFF74DFE08B1FFF78FF84FF40061B2
:101140000548FFF7AFFC002803D0BDE81040FFF7CB
:1011500084B810BD00800140140000200C4810B578
:101160000A4901604FF4E1314160002181600C22A5
:10117000C160C0E904128161C161FFF7D5FE00289A
:1011800003D0BDE81040FFF768B810BD003801403B
:1011900098000020FEE7704770470A6842624A687C
:1011A0008262D1E902231A43D1E904310B43C16AB7
:1011B0001A4321F0F7011143C16200207047006813
:1011C00000F00300704708444069704770B50DF1A6
:1011D000100C11439CE870002343194329434268D3
:1011E000314347F6FF639A430A434260002070BDD3
:1011F00010B5032101600220FFF730F8002010BD78
:10120000D0F8800070470A688260D1E901231A4350
:10121000D1E903310B43C1681A436FF30B0111434A
:10122000C1600020704710B586B004463720CDE974
:10123000001040200290002003904FF48060049042
:1012400069462046FFF7DFFF41F28832372120460A
:1012500000F03EF906B010BD10B504460A4886B04D
:1012600001432920CDE90010402002900020039086
:101270004FF48060049069462046FFF7C4FF204683
:1012800000F0DEF906B010BD0000108010B586B089
:1012900004461020CDE90010402002900020039069
:1012A0004FF48060049069462046FFF7ACFF41F29E
:1012B00088321021204600F00BF906B010BD10B5A1
:1012C00086B004460620CDE90010402002900020A0
:1012D00003904FF48060049069462046FFF793FF27
:1012E00041F288320621204600F0F2F806B010BD27
:1012F00030B585B000240546009401944FF4806019
:101300000294CDE9034069462846FFF77CFF0B486D
:101310004FF4FA510068B0FBF1F041F288314843D4
:10132000401E03D24FF0004005B030BD696B090686
:10133000F6D5C520A8632046F6E700000C00002083
:1013400070B585B004464FF4D570009001A908200F
:101350004025002681E86100C001049069462046CE
:10136000FFF751FF12484FF4FA510068B0FBF1F05B
:1013700041F288314843401E03D24FF0004005B08F
:1013800070BD616B11F0450FF5D00905F3D4606BAA
:10139000400701D5042003E0606BC00702D00120A4
:1013A000A063ECE7606B400600D5A5633046E6E736
:1013B0000C00002010B586B004460720CDE90020BF
:1013C00040200290002003904FF480600490694612
:1013D0002046FFF718FF41F288320721204600F02F
:1013E00077F806B010BD10B586B004460021022083
:1013F000CDE90010C020CDE902014FF480600490D7
:1014000069462046FFF7FFFE204600F0F1F806B0DF
:1014100010BD10B586B004460920CDE90010C020EB
:101420000290002003904FF48060049069462046AB
:10143000FFF7E9FE204600F0DBF806B010BD10B55E
:1014400086B0044600213320CDE900104020CDE9CC
:1014500002010001049069462046FFF7D4FE41F2E4
:1014600088323321204600F033F806B010BD10B5A5
:1014700086B004460D20CDE90010402002900020E7
:1014800003904FF48060049069462046FFF7BBFE4E
:1014900041F288320D21204600F01AF806B010BD46
:1014A00030B585B00C46054600210320CDE900107B
:1014B0004020CDE902010001049069462846FFF76B
:1014C000A2FE22460321284600F0DCF805B030BD1C
:1014D000454B10B51B684FF4FA54B3FBF4F3534378
:1014E0005B1E02D24FF0004010BD426B12F0450F60
:1014F000F6D01205F4D4426B520703D50421816360
:10150000084610BD426BD20702D00121816305E07D
:10151000C52282630269D2B28A4201D0012010BD85
:101520000021FFF750FE3149084201D1002010BDD3
:10153000002802DA4FF0007010BD410001D54020B4
:1015400010BD810001D5802010BDC10002D54FF42F
:10155000807010BD010102D54FF4007010BD410133
:1015600002D54FF4806010BDC10102D54FF4006078
:1015700010BD010202D54FF4805010BD410202D5CA
:101580004FF4005010BD810202D54FF4804010BDD1
:10159000C10202D54FF4004010BD410302D54FF403
:1015A000003010BD810302D54FF4802010BDC1036F
:1015B00002D54FF4002010BD010402D54FF4801075
:1015C00010BD410402D54FF4001010BD810402D5B6
:1015D0004FF4800010BD000702D54FF4000010BD8D
:1015E0004FF4803010BD00000C00002008E0FFFD2B
:1015F00012494FF4FA520968B1FBF2F141F2883214
:101600005143491E02D24FF000407047426B12F026
:10161000450FF6D01205F4D4416B490703D50421D8
:10162000816308467047416BC90703D0012181637C
:1016300008467047C5218163002070470C000020D8
:101640000F494FF4FA520968B1FBF2F141F28832C6
:101650005143491E02D24FF000407047426B12F0D6
:10166000450FF6D01205F4D4416B490703D5042188
:10167000816308467047C5218163002070470000E0
:101680000C00002030B5204B4FF4FA541B68B3FB1C
:10169000F4F341F2883463435B1E02D24FF0004002
:1016A00030BD446B14F0450FF6D02405F4D4436BE1
:1016B0005B0703D504218163084630BD436BDB071C
:1016C00002D00121816303E00369DBB28B4201D0C8
:1016D000012030BDC52181630021FFF774FD10F4A6
:1016E000604F04D0410406D54FF4005030BD000CCB
:1016F0001080002030BD000402D54FF4805030BD72
:101700004FF4803030BD00000C0000202DE9F04780
:1017100088B00D460446FEF7B5FE002682460096C8
:101720000196374608212068FFF7B0FD002829D12F
:10173000B4F8500001042068FFF775FD002821D19E
:10174000401E4FF00808CDE9020830204FF0020992
:10175000CDE904090120CDE9067002A92068FFF750
:101760001CFD2068FFF76BFE00280BD16F46206838
:10177000416B11F02A0F08D0416B09071AD5C0F848
:101780003880082008B0BDE8F087416B890205D594
:10179000FFF736FD47F82600761C02E0416B89040E
:1017A000EAD5FEF76FFEA0EB0A00401CDFD14FF038
:1017B0000040E7E7416B890703D5C0F83890022065
:1017C000E0E7416B890603D5202181630846D9E70C
:1017D00040F23A518163019800BA2860009800BA3B
:1017E00068600020CEE710B590B004460120ADF847
:1017F00038002068FFF7E3FC002854D0606C032811
:1018000042D02068FFF7EFFD00284AD10021206870
:10181000FFF7D9FC606704212068FFF7D4FCA067BC
:1018200008212068FFF7CFFCE0670C212068FFF754
:10183000CAFCC4F88000606C032825D00EA920687B
:10184000FFF72EFE00282CD1606C03281CD0BDF8B9
:101850003800206501042068FFF7DBFD002820D157
:1018600000212068FFF7AFFC606604212068FFF7C5
:10187000AAFCA06608212068FFF7A5FCE0660C2101
:101880002068FFF7A0FC206704212068FFF79BFC7D
:10189000000DE06403A92046FFF7B8F930B14FF01E
:1018A000805010B010BD4FF08060FAE7B4F85000DF
:1018B000002302042068FFF77DFD0028F1D104F128
:1018C000100007C88DE8070094E80F00FFF77EFCC2
:1018D0000020E6E72DE9F84F00260446009635463D
:1018E000B0460068FFF704FD002827D12068FFF705
:1018F00027FD4FF0805B4FF001094FF6FF7748B1AD
:10190000A6642068FFF7F4FC002817D1A06C01281A
:1019100002D020E0C4F8489000212068FFF783FC43
:1019200058B918E000212068FFF77DFC002805D198
:1019300051462068FFF790FC10B15846BDE8F88F7B
:1019400000212068FFF73FFC05464FEAD078009859
:10195000401C009002E0DFF82CA00098B84202D2B0
:10196000B8F1000FDED00098B84202D34FF080707B
:10197000E4E7680002D5C4F8449000E06664002003
:10198000DCE70000000010C17047FEF781BD30B5F4
:101990008FB028216846FEF700FC14210AA8FEF744
:1019A000FCFB0224012004900094102005900025E7
:1019B000C003CDE9085007946846FEF7E3FE0AA984
:1019C0000F2081E831006002CDE90D0500210AA851
:1019D000FEF7E8FD0FB030BD7047000070B504465B
:1019E00000680169E26821F44051114301612169F5
:1019F000A0680843616908432168CA6841F20C6322
:101A00009A430243CA6020684169A26921F4407187
:101A1000114341611E492068884202D1FEF768FEE9
:101A200001E0FEF755FE00EBC00101EB001260681B
:101A300064218000B2FBF0F3B3FBF1F36FF0180602
:101A40007343B2FBF0F5B2FBF0F605EB83053223EE
:101A500003EB0515B5FBF1F5B6FBF1F605F0F00566
:101A600005EB0615B2FBF0F6B2FBF0F0B0FBF1F0BF
:101A70006FF01802504306EB800003EB0010B0FB40
:101A8000F1F0216800F00F002844886070BD00006C
:101A9000003801402DE9F041984617460E460446AD
:101AA000069D1DE0681C1BD02DB1FEF7EBFCA0EBE2
:101AB0000800A84214D92068C16821F4D071C1601F
:101AC0002068416921F001014161202084F83D0036
:101AD00084F83E00002084F83C000320BDE8F0813B
:101AE0002068006836EA000004D00020B842D9D04F
:101AF0000020F3E70120F9E7FEE700000FB4054BF3
:101B000010B503A9044A029800F028F810BC5DF84B
:101B100014FB0000891D0008100000200907090EB1
:101B2000002804DB00F1E02080F80014704700F08A
:101B30000F0000F1E02080F8141D704702E008C893
:101B4000121F08C1002AFAD170477047002001E037
:101B500001C1121F002AFBD1704700002DE9FF4F81
:101B60008BB09A460F460446002606E025280BD087
:101B700052460D999047641C761C20780028F5D1B8
:101B80000FB03046BDE8F08F0025A94601227D49FF
:101B900000E0054314F8013F203B02FA03F008423D
:101BA000F7D120782E2817D114F8010F45F004053D
:101BB0002A280ED06FF02F022078A0F130010929D9
:101BC0000AD809EB890102EB410100EB0109641C11
:101BD000F2E757F8049B641C20786C280DD004DCD5
:101BE0004C2812D06A2811D104E074280DD07A282C
:101BF0000CD10AE045F4001507E0617845F4801542
:101C0000814202D1641C05F58015641C2078692886
:101C10003ED006DC0028B3D063280BD0642804D162
:101C200036E0732810D075285CD052460D99904745
:101C3000761CA5E017F8040B8DF8000000208DF845
:101C40000100E846012003E057F8048B4FF0FF3015
:101C500069074FF0000501D40AE06D1C4D450DDA0F
:101C60008542FADB18F805100029F6D106E06D1C54
:101C70008542FCDB18F805100029F8D12E4404E059
:101C800018F8010B52460D9990476D1EF8D277E077
:101C900000200A90C5F302504FF00A0B02280CD026
:101CA00001CFC117021E71F100020CDA0023D0EB44
:101CB000030063EB01012D2208E0FF1D27F0070759
:101CC000F7E80201EEE72A0504D52B228DF824203F
:101CD000012203E0EA070FD02022F7E70DF12008E8
:101CE000089218E000200A90C5F302504FF00A0B4A
:101CF000022803D001CF00210022EFE7FF1D27F0CB
:101D00000707F7E80201F7E75A460A9BFEF750FA81
:101D1000303208F8012D50EA0102F5D1ADEB080090
:101D200000F1200B680701D44FF00109D94502DD0D
:101D3000A9EB0B0000E000208146002506E009A881
:101D40005246405D0D9990476D1C761C089885425F
:101D5000F5DB04E0302052460D999047761CB9F12E
:101D60000001A9F10109F5DC05E018F8010B524664
:101D70000D999047761CBBF10001ABF1010BF4DC2F
:101D8000641CFAE60928010013B54FF6FF7301221F
:101D900069460248FFF732F900981CBD9800002000
:101DA00086B0FEF77DFBFFF7F2FDFFF781F9FFF745
:101DB000B5F9FFF7D3F91CA0FFF7A0FE2048FEF706
:101DC000F1FF042803D01FA0FFF798FEFEE723A031
:101DD000FFF794FE2AA0FFF791FE194CD4E91501F4
:101DE000A1FB00232DA0FFF789FE33A0A16DFFF713
:101DF00085FE37A0E16DFFF781FE3BA0216EFFF766
:101E00007DFE3FA0216DFFF779FE43A0616CFFF7D7
:101E100075FE69462046FEF7D1FE9DF8001044A0ED
:101E2000FFF76CFED2E700004D6963726F205344E8
:101E3000204361726420546573742E2E2E0D0A00A7
:101E4000140000205344206361726420696E697439
:101E5000206661696C210D0A00000000496E6974FA
:101E600069616C697A6520534420636172642073F0
:101E700075636365737366756C6C79210D0A000078
:101E8000205344206361726420696E666F726D61D5
:101E900074696F6E21200D0A0000000020436172FA
:101EA00064436170616369747920203A20256C6C09
:101EB00075200D0A000000002043617264426C6FBF
:101EC000636B53697A65203A202564200D0A00006F
:101ED000204C6F67426C6F636B4E62722020203A19
:101EE000202564200D0A0000204C6F67426C6F6350
:101EF0006B53697A6520203A202564200D0A000082
:101F00002052434120202020202020202020203A41
:101F1000202564200D0A000020436172645479700A
:101F2000652020202020203A202564200D0A000072
:101F3000204D616E75666163747572657249443ACD
:101F4000202564200D0A00000000000000000000B1
:101F5000010203040607080900000000010203044F
:101F6000801F000800000020140000003C1B000837
:101F7000941F000814000020CC0400004C1B000833
:101F80000100000010000000000000000024F40028
:041F9000000000004D
:0400000508000131BD
:00000001FF
